:100000000C945D000C9421050C94FA040C9485006A
:100010000C9485000C9485000C9485000C9485004C
:100020000C9485000C9485000C9485000C9485003C
:100030000C9485000C9485000C9485000C9485002C
:100040000C94B0040C9485000C947E040C94580419
:100050000C9485000C9485000C9485000C9485000C
:100060000C9448050C948500000000002400270033
:100070002A0000000000250028002B0004040404CE
:100080000404040402020202020203030303030342
:10009000010204081020408001020408102001021F
:1000A00004081020000000080002010000030407FB
:1000B0000000000000000000670611241FBECFEF03
:1000C000D8E0DEBFCDBF11E0A0E0B1E0EEEDF1E1A0
:1000D00002C005900D92A636B107D9F722E0A6E638
:1000E000B1E001C01D92AA3EB207E1F710E0CDE5F4
:1000F000D0E004C02197FE010E94E708CC35D1076B
:10010000C9F70E94AF060C94ED080C94000090E033
:10011000FC01EC55FF4F2491FC01E057FF4F349157
:10012000FC01E458FF4FE491EE23B1F0222339F0B3
:100130002330E9F090F4213001F1223011F1F0E0A8
:10014000EE0FFF1FEE58FF4FA591B4918FB7F894B3
:10015000EC913E2B3C938FBF08952730A9F02830B7
:10016000C9F0243061F7809180008F7D03C08091B9
:1001700080008F7780938000E2CF84B58F7784BD35
:10018000DECF84B58F7DFBCF8091B0008F778093D9
:10019000B000D5CF8091B0008F7DF9CF089508953C
:1001A000AF92BF92CF92DF92EF92FF920F931F9385
:1001B000CF93DF936C017B018B01040F151FEB01C3
:1001C0005E01AE18BF08C017D10759F06991D6017A
:1001D000ED91FC910190F081E02DC6010995892BEC
:1001E00079F7C501DF91CF911F910F91FF90EF90AB
:1001F000DF90CF90BF90AF900895FC01538D448D58
:10020000252F30E0842F90E0821B930B541710F0C1
:10021000CF96089501970895FC01918D828D9817CE
:1002200061F0A28DAE0FBF2FB11D5D968C91928DA6
:100230009F5F9F73928F90E008958FEF9FEF0895D7
:10024000FC01918D828D981731F0828DE80FF11DA0
:10025000858D90E008958FEF9FEF0895FC01918DBB
:10026000228D892F90E0805C9F4F821B91098F73B4
:100270009927089585E392E00E942E0121E0892BC1
:1002800009F420E0822F089580E090E0892B29F086
:100290000E943A0181110C9400000895FC01A48D84
:1002A000A80FB92FB11DA35ABF4F2C91848D90E098
:1002B00001968F739927848FA689B7892C93A0897B
:1002C000B1898C91837080648C93938D848D981305
:1002D00006C00288F389E02D80818F7D8083089598
:1002E000EF92FF920F931F93CF93DF93EC0181E086
:1002F000888F9B8D8C8D98131AC0E889F98980812D
:1003000085FF15C09FB7F894EE89FF896083E8895F
:10031000F98980818370806480839FBF81E090E051
:10032000DF91CF911F910F91FF90EF900895F62EDE
:100330000B8D10E00F5F1F4F0F731127E02E8C8D78
:100340008E110CC00FB607FCFACFE889F9898081BD
:1003500085FFF5CFCE010E944E01F1CFEB8DEC0F62
:10036000FD2FF11DE35AFF4FF0829FB7F8940B8FDA
:10037000EA89FB8980818062CFCFCF93DF93EC0144
:10038000888D8823B9F0AA89BB89E889F9898C917D
:1003900085FD03C0808186FD0DC00FB607FCF7CF39
:1003A0008C9185FFF2CF808185FFEDCFCE010E9439
:1003B0004E01E9CFDF91CF9108953FB7F894809136
:1003C000180290911902A0911A02B0911B0226B551
:1003D000A89B05C02F3F19F00196A11DB11D3FBF7D
:1003E000BA2FA92F982F8827BC01CD01620F711D4C
:1003F000811D911D42E0660F771F881F991F4A9546
:10040000D1F708950E94DD01609366017093670142
:1004100080936801909369012091330230913402F6
:1004200020FD17C08091660190916701A09168013D
:10043000B091690180932B0290932C02A0932D021E
:10044000B0932E022F5F3F4F30933402209333023C
:100450000895C90162E070E00E949D08019791F73C
:10046000121613067CF78091660190916701A091A6
:100470006801B091690180932F0290933002A0939C
:100480003102B0933202DECF8F929F92AF92BF9231
:10049000CF92DF92EF92FF924B015C010E94DD014F
:1004A0006B017C010E94DD016C197D098E099F0999
:1004B000683E734081059105A8F321E0821A9108F6
:1004C000A108B10888EEC80E83E0D81EE11CF11C1B
:1004D00081149104A104B10429F7FF90EF90DF90FB
:1004E000CF90BF90AF909F908F90089508950895FA
:1004F00085ED8093BC008091BC0084FDFCCF109200
:10050000220208952091AA01260F3327331F21329A
:100510003105ECF420912202FC0190E080E02430CF
:1005200069F082E00895A091AA012191AC0146579B
:100530005E4FA40FB52FB11D2C930196861798F32B
:100540008091AA01680F6093AA0180E0089581E07C
:1005500008950895E091260280912502E81730F46D
:10056000F0E0E659FE4F808190E008958FEF9FEF15
:10057000089590912602809125022FEF3FEF981762
:1005800048F4E92FF0E0E659FE4F208130E09F5F0C
:1005900090932602C9010895809125029091260228
:1005A000891B990B0895CF92DF92EF92FF920F93E0
:1005B0001F93CF93DF937C01CB018A012091F1013E
:1005C000222389F0EB016B01C40ED51ECC15DD058D
:1005D00069F06991D701ED91FC910190F081E02DD6
:1005E000C7010995F3CF642F0E948202C801DF91F1
:1005F000CF911F910F91FF90EF90DF90CF900895D2
:10060000CF93DF931F92CDB7DEB769832091F101BD
:100610002223F9F020912302203258F021E030E02B
:10062000FC013383228390E080E00F90DF91CF9133
:10063000089580912402E82FF0E0EE50FE4F99815A
:1006400090838F5F809324028093230281E090E067
:10065000ECCF61E0CE0101960E948202F7CFCF93EA
:10066000FC01C48121E02093F101C0931202109299
:100670002402109223028385682B82ED92E00E946F
:10068000000390912302913208F03FC08091220232
:100690008111FCCF82E08093220281E080932102CD
:1006A0008FEF8093F0011092EF019093EE01A2EF93
:1006B000B1E0EEECF1E080E098132FC01092CD0194
:1006C0008091CD01CC0FC82BC093CD018091200229
:1006D000813039F5109220028091CD018093BB00CA
:1006E0008091BC0083FDF8CF85EC8093BC008091A5
:1006F00022028230E1F38091F0018F3F31F080914E
:10070000F001803211F08091F001109224021092D9
:1007100023021092F101CF9108952D9121938F5FC3
:10072000CBCF85EEE2CF90E080E008950F931F934A
:10073000CF938C01C62F0E942F036C2F6460C801D9
:100740000E942F036C2F6B7FC8010E942F0383EC44
:1007500090E00197F1F7CF911F910F9108950F93BA
:100760001F93CF93DF938C01D62FC42F607F642B10
:100770000E94960380E1D89FB00111246C2BC80120
:10078000DF91CF911F910F910C949603CF93DF933C
:10079000CDB7DEB728970FB6F894DEBF0FBECDBF3A
:1007A00098E0E4E0F1E0DE01119601900D929A9557
:1007B000E1F79091E602981708F48FEF90E0880F28
:1007C000991F21E030E02C0F3D1F820F931FFC0189
:1007D0006081606840E08EED92E028960FB6F89454
:1007E000DEBF0FBECDBFDF91CF910C94AF0341E0D0
:1007F0000E94AF0381E090E00895FB01019000208A
:10080000E9F73197AF01461B570BDC01ED91FC91E5
:100810000280F381E02D09948F929F92AF92BF9254
:10082000EF92FF920F931F93CF93DF93CDB7DEB775
:10083000A1970FB6F894DEBF0FBECDBF7C01FA01C1
:10084000CB0119A2223008F42AE08E010F5D1F4F60
:10085000822E912CB12CA12CBF01A50194010E94E4
:10086000B108F901CA016A300CF5605DD8016E93D8
:100870008D01232B242B252B79F790E080E0109716
:1008800021F0BD01C7010E94FD03A1960FB6F894A7
:10089000DEBF0FBECDBFDF91CF911F910F91FF90B3
:1008A000EF90BF90AF909F908F900895695CDECFDE
:1008B0001F920F920FB60F9211242F933F934F93D5
:1008C0005F936F937F938F939F93AF93BF93EF93B8
:1008D000FF9385E392E00E944E01FF91EF91BF915B
:1008E000AF919F918F917F916F915F914F913F91C8
:1008F0002F910F900FBE0F901F9018951F920F927F
:100900000FB60F9211242F938F939F93EF93FF9322
:10091000E0914502F09146028081E0914B02F09116
:100920004C0282FD1BC0908180914E028F5F8F73BD
:1009300020914F02821741F0E0914E02F0E0EB5C13
:10094000FD4F958F80934E02FF91EF919F918F9174
:100950002F910F900FBE0F901F9018958081F4CFAC
:100960001F920F920FB60F9211242F933F938F93E4
:100970009F93AF93BF938091140290911502A09121
:100980001602B09117023091130223E0230F2D3786
:1009900058F50196A11DB11D2093130280931402F6
:1009A00090931502A0931602B0931702809118023B
:1009B00090911902A0911A02B0911B020196A11DFB
:1009C000B11D8093180290931902A0931A02B0935C
:1009D0001B02BF91AF919F918F913F912F910F90EB
:1009E0000FBE0F901F90189526E8230F0296A11DA9
:1009F000B11DD2CF1F920F920FB60F9211242F93D9
:100A00003F934F935F936F937F938F939F93AF9396
:100A1000BF93EF93FF93E0910201F09103010995D9
:100A2000FF91EF91BF91AF919F918F917F916F91C6
:100A30005F914F913F912F910F900FBE0F901F909C
:100A400018951F920F920FB60F9211242F933F9378
:100A50004F935F936F937F938F939F93AF93BF93C6
:100A6000EF93FF93E0910001F09101010995FF914F
:100A7000EF91BF91AF919F918F917F916F915F9116
:100A80004F913F912F910F900FBE0F901F9018958F
:100A90001F920F920FB60F9211242F933F934F93F3
:100AA0005F936F937F938F939F93AF93BF93EF93D6
:100AB000FF938091B900887F803609F44AC0F0F531
:100AC000883209F4A7C018F5803109F49BC0B8F446
:100AD000882309F4F9C0883009F494C0FF91EF919C
:100AE000BF91AF919F918F917F916F915F914F9146
:100AF0003F912F910F900FBE0F901F901895883146
:100B000009F488C0803251F78093F00114C080341A
:100B100009F49DC040F48033B9F38833F9F680932B
:100B2000F00185ECB0C0803509F485C0883509F442
:100B300096C0883499F60E947802D0CF883909F49B
:100B40008CC038F5883729F050F4883611F080379A
:100B500029F683E0809322021092CC0157C0883896
:100B600009F47BC0803919F0803809F0B7CF809143
:100B7000CC01803208F071C0E091CC0181E08E0F91
:100B80008093CC018091BB00F0E0E455FE4F808360
:100B90003DC0803B39F0E0F4803A09F479C0883AEE
:100BA00009F09CCF84E0809322021092AB01109256
:100BB000AA01E0911E02F0911F0209958091AA01FD
:100BC00081110FC081E08093AA0110928A0109C0AF
:100BD000803C09F4A6CF883C09F4A3CF883B09F0F8
:100BE0007DCFE091AB0181E08E0F8093AB01F0E00F
:100BF000E657FE4F80818093BB009091AB018091BE
:100C0000AA0129C08091CD018093BB0085EC80931F
:100C1000BC0064CF9091EF018091EE01981758F5D8
:100C2000E091EF0181E08E0F8093EF01F0E0E2535D
:100C3000FE4F8081E9CFE091EF0181E08E0F80933C
:100C4000EF018091BB00F0E0E253FE4F8083909172
:100C5000EF018091EE019817C8F285E8D8CFE091B6
:100C6000EF0181E08E0F8093EF018091BB00F0E0F7
:100C7000E253FE4F80838091210281115CCF81E09D
:100C80008093200284EA8093BC001092220226CF37
:100C900085EC8093BC00109222028091CC018032BE
:100CA00030F4E091CC01F0E0E455FE4F1082609109
:100CB000CC0170E0E0911C02F0911D028CEA91E001
:100CC00009951092CC010ACF1092F00134CFE5E3E0
:100CD000F2E01382128288EE93E0A0E0B0E0848319
:100CE0009583A683B78320E131E03183208325EC0F
:100CF00030E03587248724EC30E03787268720ECE6
:100D000030E0318B208B21EC30E0338B228B22ECD6
:100D100030E0358B248B26EC30E0378B268B118E20
:100D2000128E138E148EE2EDF2E01382128284830F
:100D30009583A683B78382E291E091838083EEED71
:100D4000F2E01382128284E391E09183808387E250
:100D5000848380E1818782E0828713860895789476
:100D600084B5826084BD84B5816084BD85B58260B0
:100D700085BD85B5816085BD80916E008160809361
:100D80006E001092810080918100826080938100CA
:100D900080918100816080938100809180008160DA
:100DA000809380008091B10084608093B100809135
:100DB000B00081608093B00080917A00846080935D
:100DC0007A0080917A00826080937A0080917A0024
:100DD000816080937A0080917A00806880937A00A5
:100DE0001092C100E2E9F0E02491EEE7F0E0849196
:100DF0008823C1F090E0880F991FFC01E859FF4F4C
:100E0000C591D491FC01EE58FF4FA591B4919FB7C5
:100E1000F8943881822F809583238883EC91E22B8C
:100E2000EC939FBF82E092E09093010180930001D8
:100E3000809169008C7F826080936900E89AE091DC
:100E40004502F091460282E08083E0914102F091F8
:100E500042021082E0914302F09144028FEC8083C1
:100E600010924D02E0914902F0914A0286E080839F
:100E7000E0914702F0914802808180618083E09197
:100E80004702F0914802808188608083E0914702A8
:100E9000F0914802808180688083E0914702F09160
:100EA000480280818F7D8083109226021092250255
:100EB00010922402109223021092220281E0809369
:100EC00021021092200282E10E94870083E10E94A9
:100ED00087008091B9008E7F8093B9008091B9001E
:100EE0008D7F8093B90088E48093B80085E4809377
:100EF000BC008EEC90E090931F0280931E028FEC5A
:100F000090E090931D0280931C021092E302809166
:100F1000E802823018F098E09093E3028093E602B2
:100F200062E370E080E090E00E9444026091E90298
:100F30008EED92E00E942F0368EE73E080E090E077
:100F40000E94440260E38EED92E00E949603CBE49F
:100F5000D6E4CE010197F1F760E38EED92E00E94B6
:100F600096032197F1F760E38EED92E00E949603DD
:100F700083E592E00197F1F760E28EED92E00E9446
:100F800096036091E302606240E08EED92E00E9481
:100F9000AF0384E08093E40240E06CE08EED92E0E9
:100FA0000E94AF0340E061E08EED92E00E94AF034B
:100FB000CBE3DFE1CE010197F1F782E08093E50218
:100FC00040E066E08EED92E00E94AF0340E062E018
:100FD0008EED92E00E94AF032197F1F780E00E942E
:100FE000C6036CE371E08EED92E00E94FD0388E0A1
:100FF0008093E90260E08EED92E00E942F03812C45
:1010000087E8982E83E9A82E83E0B82EC0E0D0E0D0
:101010008091330290913402181619060CF082C0A8
:101020008095909580FF7EC020912F0230913002F4
:10103000409131025091320280912B0290912C020A
:10104000A0912D02B0912E02281B390B4A0B5B0B8D
:10105000C501B4010E94B1082093270230932802F1
:101060004093290250932A0267E471E085E392E0FD
:101070000E94FD03C0902702D0902802E090290230
:10108000F0902A022AE0B701A601F7FE0DC06DE23A
:1010900085E392E00E94700144275527BA014C195C
:1010A0005D096E097F092AE085E392E00E940C0445
:1010B00065E571E085E392E00E94FD036BE571E078
:1010C00085E392E00E94FD0381E00E94C603C09088
:1010D0002702D0902802E0902902F0902A022AE00C
:1010E000B701A601F7FE0EC041E06DE28EED92E081
:1010F0000E94AF0344275527BA014C195D096E09B8
:101100007F092AE08EED92E00E940C0468EC70E00A
:1011100080E090E00E9444026EE571E08EED92E086
:101120000E94FD03209709F473CF0E943A0188239F
:1011300009F46ECF0E9400006BCF97FB072E16F4C8
:10114000009407D077FD09D00E94D30807FC05D092
:101150003EF4909581959F4F0895709561957F4FCE
:101160000895A1E21A2EAA1BBB1BFD010DC0AA1FE8
:10117000BB1FEE1FFF1FA217B307E407F50720F000
:10118000A21BB30BE40BF50B661F771F881F991F7B
:101190001A9469F760957095809590959B01AC01C4
:1011A000BD01CF010895AA1BBB1B51E107C0AA1FB7
:1011B000BB1FA617B70710F0A61BB70B881F991FF8
:1011C0005A95A9F780959095BC01CD010895EE0F31
:0E11D000FF1F0590F491E02D0994F894FFCFD5
:1011DE007602760200004000140054000000000069
:1011EE007001D000FD00BD012E010C012001000098
:1011FE0000000003D3029303A902CC02B902AA0293
:10120E0000000000F703D000930377024865617277
:10121E0074526174653A004865617274205261744B
:10122E0065203D20002042504D2E000D0A0020204A
:06123E002020202000002A
:107E0000112484B714BE81FFF0D085E080938100F7
:107E100082E08093C00088E18093C10086E0809377
:107E2000C20080E18093C4008EE0C9D0259A86E02C
:107E300020E33CEF91E0309385002093840096BBD3
:107E4000B09BFECF1D9AA8958150A9F7CC24DD24C4
:107E500088248394B5E0AB2EA1E19A2EF3E0BF2EE7
:107E6000A2D0813461F49FD0082FAFD0023811F036
:107E7000013811F484E001C083E08DD089C08234E0
:107E800011F484E103C0853419F485E0A6D080C0E4
:107E9000853579F488D0E82EFF2485D0082F10E0AE
:107EA000102F00270E291F29000F111F8ED06801E7
:107EB0006FC0863521F484E090D080E0DECF843638
:107EC00009F040C070D06FD0082F6DD080E0C81688
:107ED00080E7D80618F4F601B7BEE895C0E0D1E017
:107EE00062D089930C17E1F7F0E0CF16F0E7DF06D8
:107EF00018F0F601B7BEE89568D007B600FCFDCFD4
:107F0000A601A0E0B1E02C9130E011968C91119780
:107F100090E0982F8827822B932B1296FA010C0160
:107F200087BEE89511244E5F5F4FF1E0A038BF0790
:107F300051F7F601A7BEE89507B600FCFDCF97BE46
:107F4000E89526C08437B1F42ED02DD0F82E2BD052
:107F50003CD0F601EF2C8F010F5F1F4F84911BD097
:107F6000EA94F801C1F70894C11CD11CFA94CF0C13
:107F7000D11C0EC0853739F428D08EE10CD085E9AC
:107F80000AD08FE07ACF813511F488E018D01DD067
:107F900080E101D065CF982F8091C00085FFFCCF94
:107FA0009093C60008958091C00087FFFCCF809118
:107FB000C00084FD01C0A8958091C6000895E0E648
:107FC000F0E098E1908380830895EDDF803219F02E
:107FD00088E0F5DFFFCF84E1DECF1F93182FE3DFCA
:107FE0001150E9F7F2DF1F91089580E0E8DFEE27F6
:047FF000FF270994CA
:027FFE00040479
:0400000300007E007B
:00000001FF
