:100000000C9463000C948B000C948B000C948B006C
:100010000C948B000C948B000C948B000C94CC02F1
:100020000C948B000C948B000C948B000C948B0024
:100030000C948B000C948B000C948B000C948B0014
:100040000C9480030C948B000C944E030C942803A6
:100050000C948B000C948B000C948B000C948B00F4
:100060000C948B000C948B000000000024002700EF
:100070002A0000000000250028002B0002000000DC
:1000800000230026002900040404040404040402DC
:100090000202020202030303030303010204081025
:1000A00020408001020408102001020408102000F2
:1000B0000000080002010000030407000000000027
:1000C00000000000DB0811241FBECFEFD8E0DEBF28
:1000D000CDBF11E0A0E0B1E0EEE3F7E102C0059092
:1000E0000D92A838B107D9F722E0A8E8B1E001C025
:1000F0001D92A136B207E1F710E0C3E6D0E004C0DC
:100100002197FE010E94880BC236D107C9F70E94D1
:10011000CA030C949D0B0C94000080E480937C0037
:1001200080917A00806480937A0080917A0086FDC5
:10013000FCCF80917800909179000895AF92BF92A2
:10014000CF92DF92EF92FF920F931F93CF93DF93A3
:100150006C017B018B01040F151FEB015E01AE18D2
:10016000BF08C017D10759F06991D601ED91FC91F4
:100170000190F081E02DC6010995892B79F7C50121
:10018000DF91CF911F910F91FF90EF90DF90CF9073
:10019000BF90AF900895FC01538D448D252F30E022
:1001A000842F90E0821B930B541710F0CF96089584
:1001B00001970895FC01918D828D981761F0A28DB1
:1001C000AE0FBF2FB11D5D968C91928D9F5F9F7377
:1001D000928F90E008958FEF9FEF0895FC01918D2D
:1001E000828D981731F0828DE80FF11D858D90E09A
:1001F00008958FEF9FEF0895FC01918D228D892F37
:1002000090E0805C9F4F821B91098F73992708951E
:1002100084EC91E00E94FC0021E0892B09F420E0AD
:10022000822F089580E090E0892B29F00E94080138
:1002300081110C9400000895FC01A48DA80FB92F22
:10024000B11DA35ABF4F2C91848D90E001968F73FE
:100250009927848FA689B7892C93A089B1898C911D
:10026000837080648C93938D848D981306C002886C
:10027000F389E02D80818F7D80830895EF92FF9236
:100280000F931F93CF93DF93EC0181E0888F9B8DB9
:100290008C8D98131AC0E889F989808185FF15C073
:1002A0009FB7F894EE89FF896083E889F989808196
:1002B0008370806480839FBF81E090E0DF91CF9165
:1002C0001F910F91FF90EF900895F62E0B8D10E087
:1002D0000F5F1F4F0F731127E02E8C8D8E110CC0F6
:1002E0000FB607FCFACFE889F989808185FFF5CF41
:1002F000CE010E941C01F1CFEB8DEC0FFD2FF11D03
:10030000E35AFF4FF0829FB7F8940B8FEA89FB897D
:1003100080818062CFCFCF93DF93EC01888D8823DB
:10032000B9F0AA89BB89E889F9898C9185FD03C058
:10033000808186FD0DC00FB607FCF7CF8C9185FF3D
:10034000F2CF808185FFEDCFCE010E941C01E9CF65
:10035000DF91CF910895833081F028F4813099F0B6
:100360008230A9F008958730A9F08830C9F0843030
:10037000B1F4809180008F7D03C0809180008F77E1
:1003800080938000089584B58F7784BD089584B5E7
:100390008F7DFBCF8091B0008F778093B000089560
:1003A0008091B0008F7DF9CFCF93DF93E1EBF0E048
:1003B0008491EDE9F0E0D491E9E8F0E0C491CC2338
:1003C000A1F081110E94AB01EC2FF0E0EE0FFF1FB6
:1003D000E358FF4FA591B491EC91ED2381E090E0BB
:1003E00009F480E0DF91CF91089580E090E0FACFAA
:1003F000CF93DF939091000189130BC0ECE7F0E0FD
:10040000E4919FEF90930001E13059F138F1E2302F
:1004100071F1282F30E0F901E155FF4F8491F90186
:10042000E556FF4FD491F901E957FF4FC491CC2312
:1004300091F081110E94AB01EC2FF0E0EE0FFF1F55
:10044000EE58FF4FA591B4918FB7F894EC91D095E9
:10045000DE23DC938FBFDF91CF91089510926E0061
:10046000D8CF90916F009D7F90936F00D2CF9091E5
:1004700070009D7F9093700091E09093B0009091F8
:10048000B100987F94609093B1001092B300C1CFF7
:100490003FB7F89480918D0190918E01A0918F01CA
:1004A000B091900126B5A89B05C02F3F19F0019689
:1004B000A11DB11D3FBFBA2FA92F982F8827BC01BE
:1004C000CD01620F711D811D911D42E0660F771FE6
:1004D000881F991F4A95D1F70895FC0101900020CB
:1004E000E9F73197AF01481B590BBC0184EC91E04F
:1004F0000C949E008F929F92AF92BF920F931F9386
:10050000CF93DF93CDB7DEB7A1970FB6F894DEBFD8
:100510000FBECDBF19A2423008F44AE08E010F5D34
:100520001F4F842E912CB12CA12CA50194010E9467
:100530005B0BE62FB901CA01EA30F4F4E05DD801A3
:10054000EE938D01232B242B252B79F790E080E06F
:10055000109719F0CD010E946D02A1960FB6F89484
:10056000DEBF0FBECDBFDF91CF911F910F91BF9026
:10057000AF909F908F900895E95CE1CFCF93DF9388
:100580000E946D02EC0183E191E00E946D028C0FEC
:100590009D1FDF91CF9108951F920F920FB60F927A
:1005A00011242F933F934F935F936F937F938F9378
:1005B0009F93AF93BF93EF93FF938091B40190917A
:1005C000B501A091B601B091B701892B8A2B8B2B75
:1005D000D1F19091AF01E091B001F091B101808132
:1005E000892780838091B4019091B501A091B601D3
:1005F000B091B701181619061A061B069CF48091D3
:10060000B4019091B501A091B601B091B7010197E5
:10061000A109B1098093B4019093B501A093B601EB
:10062000B093B701FF91EF91BF91AF919F918F91DF
:100630007F916F915F914F913F912F910F900FBEDE
:100640000F901F901895809100010E94F801EACF49
:100650001F920F920FB60F9211242F933F934F9337
:100660005F936F937F938F939F93AF93BF93EF931A
:10067000FF9384EC91E00E941C01FF91EF91BF91E8
:10068000AF919F918F917F916F915F914F913F912A
:100690002F910F900FBE0F901F9018951F920F92E1
:1006A0000FB60F9211242F938F939F93EF93FF9385
:1006B000E091D401F091D5018081E091DA01F091CF
:1006C000DB0182FD1BC090818091DD018F5F8F7304
:1006D0002091DE01821741F0E091DD01F0E0EC5362
:1006E000FE4F958F8093DD01FF91EF919F918F9148
:1006F0002F910F900FBE0F901F9018958081F4CF0F
:100700001F920F920FB60F9211242F933F938F9346
:100710009F93AF93BF938091890190918A01A0919B
:100720008B01B0918C013091880123E0230F2D378C
:1007300058F50196A11DB11D209388018093890170
:1007400090938A01A0938B01B0938C0180918D01CD
:1007500090918E01A0918F01B09190010196A11D01
:10076000B11D80938D0190938E01A0938F01B09362
:100770009001BF91AF919F918F913F912F910F90D9
:100780000FBE0F901F90189526E8230F0296A11D0B
:10079000B11DD2CFCF93DF9300D000D0CDB7DEB75D
:1007A000789484B5826084BD84B5816084BD85B54C
:1007B000826085BD85B5816085BD80916E00816058
:1007C00080936E00109281008091810082608093FE
:1007D0008100809181008160809381008091800000
:1007E0008160809380008091B10084608093B1002B
:1007F0008091B00081608093B00080917A00846025
:1008000080937A0080917A00826080937A00809150
:100810007A00816080937A0080917A00806880936A
:100820007A001092C100EDE9F0E02491E9E8F0E0EF
:1008300084918823C9F090E0880F991FFC01E85942
:10084000FF4F45915491FC01EE58FF4FA591B49193
:100850009FB7F894FA0180812095822380838C9140
:10086000E22FE823EC939FBFE091D401F091D501F2
:1008700082E08083E091D001F091D1011082E0917B
:10088000D201F091D3018FEC80831092DC01E091D2
:10089000D801F091D90186E08083E091D601F091F2
:1008A000D701808180618083E091D601F091D701EA
:1008B000808188608083E091D601F091D7018081AA
:1008C00080688083E091D601F091D70180818F7D8F
:1008D000808386E191E00E94BE0281E090E09093E7
:1008E000A6018093A50184E190E0A0E0B0E08093B0
:1008F0009D0190939E01A0939F01B093A001882435
:100900008A94982C5401C0909D01D0909E01E09053
:100910009F01F090A001C701B6010E94220A27E1C1
:1009200037EB41ED58E30E94D90A9B01AC0160E02E
:1009300070E080E89FE3F5E6CF16D104E104F1040E
:1009400020F060E070E088EC92E40E947A090E9456
:10095000EC097B010E948D00BC01990F880B990B5B
:100960000E94240A20E030EC4FE754E40E947A0908
:1009700020E030E040EA50E40E94D90A27E930E95B
:100980004FEA5EE30E947A093B016C0101E010E04E
:100990000E151F054CF50E948D00BC01990F880BA8
:1009A000990B0E94240A20E030EC4FE754E40E94A7
:1009B0007A0920E030E040EA50E40E94D90A27E9B1
:1009C00030E94FEA5EE30E947A091B012C01930192
:1009D000A6010E94D40A181614F0130126010F5F15
:1009E0001F4F31016201D4CFC301D6018093C001F2
:1009F0009093C101A093C201B093C30183E191E040
:100A00000E946D0281E391E00E946D02C090C001DE
:100A1000D090C101E090C201F090C301A7019601FE
:100A2000C701B6010E94460B882309F42CC18FE34D
:100A300091E00E946D028BE491E00E94BE0220E0F2
:100A400030E040EF50E46091C0017091C1018091AD
:100A5000C2019091C3010E94750918160CF495C249
:100A60000E94D4019C838B830E94D4012B813C8102
:100A700082179307C9F30E94D4019C838B830E9441
:100A800048026093AB017093AC018093AD019093E9
:100A9000AE018091AB019091AC01A091AD01B091FC
:100AA000AE018093A7019093A801A093A901B093F0
:100AB000AA018091A5019091A6018130910509F0CC
:100AC00074C107EC10E00E94D4012B813C81821795
:100AD0009307C9F30E94D4019C838B8301501109B1
:100AE00091F70E9448026093AB017093AC01809330
:100AF000AD019093AE018091AB019091AC01A091BA
:100B0000AD01B091AE018093A1019093A201A09399
:100B1000A301B093A4012091A1013091A2014091C1
:100B2000A3015091A4018091A7019091A801A091E7
:100B3000A901B091AA01281B390B4A0B5B0B60E09D
:100B400071EE85EF95E00E945B0B20939D01309341
:100B50009E0140939F015093A00183E191E00E9488
:100B60006D028DE491E00E946D0260919D01709193
:100B70009E0180919F019091A0014AE00E947A021B
:100B80008FE591E00E94BE0240909D0150909E0131
:100B900060909F017090A00129EE421623E052065A
:100BA0006104710408F047C181E090E09093A601D0
:100BB0008093A5010E94D4019A8389830E94D40165
:100BC00029813A8182179307C9F30E94D4019A833D
:100BD00089830E9448026093AB017093AC018093BB
:100BE000AD019093AE016091AB017091AC01809129
:100BF000AD019091AE010E94220A0E94F309609318
:100C0000A7017093A8018093A9019093AA01F12CE8
:100C1000E12C0E94D40129813A8182179307C9F3FC
:100C2000FFEFEF1AFF0A0E94D4019A83898323E61B
:100C3000E216F10409F006C10E9448026093AB017C
:100C40007093AC018093AD019093AE018091AB01A4
:100C50009091AC01A091AD01B091AE014091A7017E
:100C60005091A8016091A9017091AA01841B950B74
:100C7000A60BB70B8093990190939A01A0939B01C7
:100C8000B0939C01C6CF26013701E89477F82FEF87
:100C90003FEF4FE75FE7C301B2010E94460B8111AE
:100CA0000DC02FEF3FEF4FE75FE7C301B2010E9496
:100CB000750918161CF483E491E0BBCE2FEF3FEFCB
:100CC0004FE75FE4C701B6010E94D40A18161CF46E
:100CD00087E491E0AECE2FEF3FEF4FE75FECC70127
:100CE000B6010E94750987FDF3CF20E030E0A9012D
:100CF000C701B6010E94750987FF09C06DE284EC47
:100D000091E00E943E01F7FAF094F7F8F0942AE09F
:100D100037ED43EA5BE3C701B6010E9409092B01E5
:100D20003C010E94F3096B017C010E94220A9B0195
:100D3000AC01C301B2010E9408092B013C014AE049
:100D4000C701B6010E947A026EE284EC91E00E9433
:100D50003E0120E030E040E251E4C301B2010E94D4
:100D6000D90A2B013C010E94F3096B01F12CE12C03
:100D70004AE0C701B6010E947A02C701B6010E948B
:100D8000220A9B01AC01C301B2010E94080920E0C4
:100D900030E040E251E40E94D90A0E94F30990E059
:100DA00080E04AE00E947A0246CE029709F0D5CE52
:100DB00007EE13E00E94D4012B813C818217930738
:100DC000C9F30E94D4019C838B830150110991F7D0
:100DD0000E9448026093AB017093AC018093AD0117
:100DE0009093AE018091AB019091AC01A091AD01C7
:100DF000B091AE018093A1019093A201A093A301B1
:100E0000B093A4012091A1013091A2014091A301CE
:100E10005091A4018091A7019091A801A091A901EE
:100E2000B091AA01281B390B4A0B5B0B60E075E6F9
:100E30008DEC9DE188CEE2E0F0E0F093A601E09336
:100E4000A501B8CE87ECE816F10409F0E2CE0E94C5
:100E500048026093AB017093AC018093AD01909315
:100E6000AE018091AB019091AC01A091AD01B09128
:100E7000AE014091A7015091A8016091A901709124
:100E8000AA01841B950BA60BB70B80939501909339
:100E90009601A0939701B093980189819A8120913E
:100EA0009501309196014091970150919801892BBD
:100EB00009F446C08091990190919A01A0919B01FB
:100EC000B0919C01880F991FAA1FBB1F281B390BCB
:100ED0004A0B5B0BC301B2010E944B0B0E94220A1A
:100EE00020E030E44CE156E40E947A090E94F309C4
:100EF0006093910170939201809393019093940178
:100F000082E691E00E946D026091910170919201E0
:100F100080919301909194014AE00E947A0285E7C2
:100F200091E00E94BE0280E090E0892B09F4EBCCB6
:100F30000E940801882309F4E6CC0E940000E3CC5B
:100F40008091990190919A01A0919B01B0919C018F
:100F5000880F991FAA1FBB1F281B390B4A0B5B0B5D
:100F6000C301B2010E944B0B0E94220A20E030E430
:100F70004CE156E40E947A099B01AC0160E070E00C
:100F800088EC92E40E940809B1CF8091000183307F
:100F9000C1F5ECE7F0E0849187FF81C00E94480230
:100FA0006B017C0188EE482E83E0582E612C712C59
:100FB0000E9448026C197D098E099F09683E7340A2
:100FC00081059105A8F391E0491A5108610871085B
:100FD000E8EECE0EE3E0DE1EE11CF11C41145104EC
:100FE0006104710429F783E00E94F80187E791E02A
:100FF0000E94BE0287E791E00E94BE0287E791E06F
:1010000090CF8F3F59F683E080930001ECE7F0E04A
:1010100084918F3F09F4C2CF813009F478C030F158
:10102000823009F0B9CF1092B0001092B1009091C7
:10103000B00092609093B0009091B1009160909355
:10104000B100EAE8F0E09491E92FF0E0EE0FFF1F25
:10105000EE58FF4F259134913093B1012093B001A8
:10106000EEE9F0E094919093AF0119C014BC15BC67
:1010700084B5826084BD85B5816085BDEAE8F0E015
:101080008491E82FF0E0EE0FFF1FEE58FF4F85919F
:101090009491EEE9F0E084918093B30180E0EEE971
:1010A000F0E09491EAE8F0E02491222399F030E016
:1010B000220F331FF901E859FF4FA591B491F901AF
:1010C000EE58FF4F259134912FB7F8943C91932B14
:1010D0009C932FBF882309F439C0823009F04AC09D
:1010E0008091B100887F83608093B10089EF809305
:1010F000B3008092B4019092B501A092B601B09273
:10110000B7018091700082608093700047CF109289
:1011100080001092810090918100986090938100EE
:1011200090918100916090938100EAE8F0E09491C1
:10113000E92FF0E0EE0FFF1FEE58FF4F259134919D
:10114000EEE9F0E094919093B201A9CF85B5887F44
:10115000836085BDFCE7F7BD8092BC019092BD0124
:10116000A092BE01B092BF0180916E008260809318
:101170006E0014CF8130D1F480918100887F81602E
:10118000809381008FE39FE1909389008093880092
:101190008092B8019092B901A092BA01B092BB01BD
:1011A00080916F00826080936F00F8CE823009F0EA
:1011B000F5CE8FE39CCFE4ECF1E01382128288EE4F
:1011C00093E0A0E0B0E084839583A683B78385E0B5
:1011D00091E09183808385EC90E09587848784EC0F
:1011E00090E09787868780EC90E0918B808B81ECF4
:1011F00090E0938B828B82EC90E0958B848B86ECD5
:1012000090E0978B868B118E128E138E148E08951C
:101210005058BB27AA270E9420090C949A0A0E94C2
:101220008C0A38F00E94930A20F039F49F3F19F499
:1012300026F40C94890A0EF4E095E7FB0C94830ADB
:10124000E92F0E94AB0A58F3BA17620773078407A5
:10125000950720F079F4A6F50C94CD0A0EF4E095EC
:101260000B2EBA2FA02D0B01B90190010C01CA0160
:10127000A0011124FF27591B99F0593F50F4503E0B
:1012800068F11A16F040A22F232F342F4427585FFD
:10129000F3CF469537952795A795F0405395C9F715
:1012A0007EF41F16BA0B620B730B840BBAF09150CD
:1012B000A1F0FF0FBB1F661F771F881FC2F70EC06C
:1012C000BA0F621F731F841F48F48795779567953F
:1012D000B795F7959E3F08F0B0CF9395880F08F02B
:1012E0009927EE0F9795879508950E945F0A08F455
:1012F00081E008950E948E090C949A0A0E94930A34
:1013000058F00E948C0A40F029F45F3F29F00C94B9
:10131000830A51110C94CE0A0C94890A0E94AB0ADC
:1013200068F39923B1F3552391F3951B550BBB2714
:10133000AA2762177307840738F09F5F5F4F220F59
:10134000331F441FAA1FA9F335D00E2E3AF0E0E850
:1013500032D091505040E695001CCAF72BD0FE2F9A
:1013600029D0660F771F881FBB1F2617370748072E
:10137000AB07B0E809F0BB0B802DBF01FF279358E6
:101380005F4F3AF09E3F510578F00C94830A0C941D
:10139000CE0A5F3FE4F3983ED4F386957795679540
:1013A000B795F7959F5FC9F7880F911D969587951B
:1013B00097F90895E1E0660F771F881FBB1F62173A
:1013C00073078407BA0720F0621B730B840BBA0BF8
:1013D000EE1F88F7E09508950E94F3096894B11113
:1013E0000C94CE0A08950E94B30A88F09F5798F093
:1013F000B92F9927B751B0F0E1F0660F771F881F1A
:10140000991F1AF0BA95C9F714C0B13091F00E9433
:10141000CD0AB1E008950C94CD0A672F782F882764
:10142000B85F39F0B93FCCF3869577956795B3955A
:10143000D9F73EF490958095709561957F4F8F4FC9
:101440009F4F0895E89409C097FB3EF490958095CE
:10145000709561957F4F8F4F9F4F9923A9F0F92F7A
:1014600096E9BB279395F695879577956795B795F8
:10147000F111F8CFFAF4BB0F11F460FF1BC06F5FDE
:101480007F4F8F4F9F4F16C0882311F096E911C0F0
:10149000772321F09EE8872F762F05C0662371F011
:1014A00096E8862F70E060E02AF09A95660F771F25
:1014B000881FDAF7880F9695879597F90895990F01
:1014C0000008550FAA0BE0E8FEEF16161706E8070E
:1014D000F907C0F012161306E407F50798F0621B2F
:1014E000730B840B950B39F40A2661F0232B242B04
:1014F000252B21F408950A2609F4A140A6958FEF23
:10150000811D811D089597F99F6780E870E060E074
:1015100008959FEF80EC089500240A94161617068C
:1015200018060906089500240A94121613061406D4
:1015300005060895092E0394000C11F4882352F037
:10154000BB0F40F4BF2B11F460FF04C06F5F7F4FEF
:101550008F4F9F4F089557FD9058440F551F59F0D6
:101560005F3F71F04795880F97FB991F61F09F3F90
:1015700079F087950895121613061406551FF2CFB9
:101580004695F1DF08C0161617061806991FF1CF09
:1015900086957105610508940895E894BB27662730
:1015A0007727CB0197F908950E945F0A08F48FEF1F
:1015B00008950E94EC0A0C949A0A0E948C0A38F052
:1015C0000E94930A20F0952311F00C94830A0C9446
:1015D000890A11240C94CE0A0E94AB0A70F3959FDD
:1015E000C1F3950F50E0551F629FF001729FBB271A
:1015F000F00DB11D639FAA27F00DB11DAA1F649FB6
:101600006627B00DA11D661F829F2227B00DA11D68
:10161000621F739FB00DA11D621F839FA00D611DEE
:10162000221F749F3327A00D611D231F849F600D0F
:10163000211D822F762F6A2F11249F5750409AF038
:10164000F1F088234AF0EE0FFF1FBB1F661F771FC4
:10165000881F91505040A9F79E3F510580F00C948F
:10166000830A0C94CE0A5F3FE4F3983ED4F3869548
:1016700077956795B795F795E7959F5FC1F7FE2B2F
:10168000880F911D9695879597F908950E945F0A96
:10169000880B990B0895DB018F939F930E947D0B1C
:1016A000BF91AF91A29F800D911DA39F900DB29FFE
:1016B000900D11240895A1E21A2EAA1BBB1BFD0157
:1016C0000DC0AA1FBB1FEE1FFF1FA217B307E40721
:1016D000F50720F0A21BB30BE40BF50B661F771F79
:1016E000881F991F1A9469F7609570958095909559
:1016F0009B01AC01BD01CF0108950E948E0BA59FF7
:10170000900DB49F900DA49F800D911D11240895FC
:10171000EE0FFF1F0590F491E02D0994A29FB001F8
:10172000B39FC001A39F700D811D1124911DB29F15
:0E173000700D811D1124911D0895F894FFCFB6
:10173E00FF000000003E019E00CB008B01FC00DA92
:10174E0000EE000D0A005468697320697320612051
:10175E006672657175656E6379206D65746572214B
:10176E0000496E707574566F6C746167653D006EDE
:10177E00616E00696E66006F76660056005468658D
:10178E00206672657175656E6379206973200048F5
:10179E005A00546865206475747920726174696F9B
:1017AE00206973200025004F56455220564F4C5449
:0817BE004147452121210000F3
:00000001FF
