:100000000C9462000C9437050C9410050C948A0033
:100010000C948A000C948A000C948A000C948A0038
:100020000C948A000C948A000C948A000C948A0028
:100030000C948A000C948A000C948A000C948A0018
:100040000C94C6040C948A000C9494040C946E04D2
:100050000C948A000C948A000C948A000C948A00F8
:100060000C945E050C948A00000000002400270018
:100070002A0000000000250028002B0000000000DE
:1000800023002600290004040404040404040202DA
:100090000202020203030303030301020408102007
:1000A0004080010204081020010204081020000012
:1000B0000008000201000003040700000000000027
:1000C00000007D0611241FBECFEFD8E0DEBFCDBFFC
:1000D00011E0A0E0B1E0EEECF1E102C005900D927C
:1000E000AE34B107D9F722E0AEE4B1E001C01D9211
:1000F000A43CB207E1F710E0C2E6D0E004C02197CB
:10010000FE010E94D008C136D107C9F70E94C5067A
:100110000C94E5080C94000080910B0290910C0265
:10012000A0910D02B0910E020196A11DB11D809308
:100130000B0290930C02A0930D02B0930E0208954F
:1001400008950895AF92BF92CF92DF92EF92FF92FF
:100150000F931F93CF93DF936C017B018B01040FEF
:10016000151FEB015E01AE18BF08C017D10759F08B
:100170006991D601ED91FC910190F081E02DC601CD
:100180000995892B79F7C501DF91CF911F910F91C7
:10019000FF90EF90DF90CF90BF90AF900895FC015B
:1001A000538D448D252F30E0842F90E0821B930BDC
:1001B000541710F0CF96089501970895FC01918D82
:1001C000828D981761F0A28DAE0FBF2FB11D5D9685
:1001D0008C91928D9F5F9F73928F90E008958FEF27
:1001E0009FEF0895FC01918D828D981731F0828DDB
:1001F000E80FF11D858D90E008958FEF9FEF089532
:10020000FC01918D228D892F90E0805C9F4F821B95
:1002100091098F73992708958FE092E00E94000161
:1002200021E0892B09F420E0822F089580E090E0FE
:10023000892B29F00E940C0181110C940000089573
:10024000FC01A48DA80FB92FB11DA35ABF4F2C914B
:10025000848D90E001968F739927848FA689B78942
:100260002C93A089B1898C91837080648C93938D39
:10027000848D981306C00288F389E02D80818F7DDC
:1002800080830895EF92FF920F931F93CF93DF9394
:10029000EC0181E0888F9B8D8C8D98131AC0E889C2
:1002A000F989808185FF15C09FB7F894EE89FF8991
:1002B0006083E889F98980818370806480839FBF2F
:1002C00081E090E0DF91CF911F910F91FF90EF902F
:1002D0000895F62E0B8D10E00F5F1F4F0F7311273F
:1002E000E02E8C8D8E110CC00FB607FCFACFE8897A
:1002F000F989808185FFF5CFCE010E942001F1CFE1
:10030000EB8DEC0FFD2FF11DE35AFF4FF0829FB7ED
:10031000F8940B8FEA89FB8980818062CFCFCF93DD
:10032000DF93EC01888D8823B9F0AA89BB89E8891D
:10033000F9898C9185FD03C0808186FD0DC00FB6C3
:1003400007FCF7CF8C9185FFF2CF808185FFEDCF41
:10035000CE010E942001E9CFDF91CF910895833033
:1003600081F028F4813099F08230A9F00895873027
:10037000A9F08830C9F08430B1F4809180008F7D7D
:1003800003C0809180008F7780938000089584B5AA
:100390008F7784BD089584B58F7DFBCF8091B000A9
:1003A0008F778093B00008958091B0008F7DF9CF52
:1003B0001F93CF93DF93282F30E0F901E255FF4FD1
:1003C0008491F901E656FF4FD491F901EA57FF4FA6
:1003D000C491CC23A9F0162F81110E94AF01EC2FFC
:1003E000F0E0EE0FFF1FEE58FF4FA591B4918FB7CD
:1003F000F894EC91111108C0D095DE23DC938FBFE7
:10040000DF91CF911F910895DE2BF8CFCF93DF932B
:1004100090E0FC01E656FF4F24918A579F4FFC0164
:1004200084918823C9F090E0880F991FFC01E85956
:10043000FF4FA591B491FC01EE58FF4FC591D491A7
:1004400061110DC09FB7F8948C91209582238C93F5
:100450008881282328839FBFDF91CF910895623040
:1004600051F49FB7F8943C91822F809583238C930D
:10047000E8812E2BEFCF8FB7F894EC912E2B2C9395
:100480008FBFEACF3FB7F8948091FC019091FD01B6
:10049000A091FE01B091FF0126B5A89B05C02F3F9A
:1004A00019F00196A11DB11D3FBFBA2FA92F982F9A
:1004B0008827BC01CD01620F711D811D911D42E095
:1004C000660F771F881F991F4A95D1F708958F925D
:1004D0009F92AF92BF92CF92DF92EF92FF924B0129
:1004E0005C010E9442026B017C010E9442026C1975
:1004F0007D098E099F09683E734081059105A8F327
:1005000021E0821A9108A108B10888EEC80E83E0A4
:10051000D81EE11CF11C81149104A104B10429F737
:10052000FF90EF90DF90CF90BF90AF909F908F9013
:1005300008950895089585ED8093BC008091BC00D6
:1005400084FDFCCF10920602089520918E01260FA3
:100550003327331F21323105ECF420910602FC01D0
:1005600090E080E0243069F082E00895A0918E014F
:100570002191AC0142595E4FA40FB52FB11D2C93B0
:100580000196861798F380918E01680F60938E0113
:1005900080E0089581E008950895E0910A02809135
:1005A0000902E81730F4F0E0E25BFE4F808190E052
:1005B00008958FEF9FEF089590910A0280910902AC
:1005C0002FEF3FEF981748F4E92FF0E0E25BFE4F82
:1005D000208130E09F5F90930A02C90108958091C5
:1005E000090290910A02891B990B0895CF92DF921C
:1005F000EF92FF920F931F93CF93DF937C01CB0178
:100600008A012091D501222389F0EB016B01C40EF0
:10061000D51ECC15DD0569F06991D701ED91FC91EE
:100620000190F081E02DC7010995F3CF642F0E945E
:10063000A502C801DF91CF911F910F91FF90EF901C
:10064000DF90CF900895CF93DF931F92CDB7DEB7A1
:1006500069832091D5012223F9F0209107022032ED
:1006600058F021E030E0FC013383228390E080E009
:100670000F90DF91CF91089580910802E82FF0E06C
:10068000EA52FE4F998190838F5F80930802809396
:10069000070281E090E0ECCF61E0CE0101960E947C
:1006A000A502F7CFCF93FC01C48121E02093D501AF
:1006B000C093F60110920802109207028385682BFE
:1006C0008CEA92E00E94230390910702913208F095
:1006D0003FC0809106028111FCCF82E08093060228
:1006E00081E0809305028FEF8093D4011092D301B3
:1006F0009093D201A6EDB1E0E2EBF1E080E0981337
:100700002FC01092B1018091B101CC0FC82BC093C2
:10071000B10180910402813039F510920402809178
:10072000B1018093BB008091BC0083FDF8CF85ECC4
:100730008093BC00809106028230E1F38091D40165
:100740008F3F31F08091D401803211F08091D4013B
:1007500010920802109207021092D501CF910895CD
:100760002D9121938F5FCBCF85EEE2CF90E080E09B
:1007700008958F929F92AF92BF920F931F93CF9342
:10078000DF93CDB7DEB7A1970FB6F894DEBF0FBEEB
:10079000CDBF19A2423008F44AE08E010F5D1F4F11
:1007A000842E912CB12CA12CA50194010E94A308A8
:1007B000E62FB901CA01EA3044F5E05DD801EE93B5
:1007C0008D01232B242B252B79F790E080E01097C7
:1007D00069F0FD0101900020E9F73197AF014A1B54
:1007E0005B0BBD0188EB92E00E94A200A1960FB6C0
:1007F000F894DEBF0FBECDBFDF91CF911F910F9157
:10080000BF90AF909F908F900895E95CD7CF0F93E2
:100810001F93CF938C01C62F0E9452036C2F6460EC
:10082000C8010E9452036C2F6B7FC8010E945203C3
:1008300083EC90E00197F1F7CF911F910F9108950C
:100840000F931F93CF93DF938C01D62FC42F607F1C
:10085000642B0E94070480E1D89FB00111246C2B07
:10086000C801DF91CF911F910F910C940704CF9392
:10087000DF93CDB7DEB728970FB6F894DEBF0FBE73
:10088000CDBF98E0E4E0F1E0DE01119601900D9219
:100890009A95E1F79091C002981708F48FEF90E0D5
:1008A000880F991F21E030E02C0F3D1F820F931F0E
:1008B000FC016081606840E088EB92E028960FB60A
:1008C000F894DEBF0FBECDBFDF91CF910C94200412
:1008D00041E00E94200481E090E008951F920F9271
:1008E0000FB60F9211242F933F934F935F936F9303
:1008F0007F938F939F93AF93BF93EF93FF938FE07B
:1009000092E00E942001FF91EF91BF91AF919F91E2
:100910008F917F916F915F914F913F912F910F90A8
:100920000FBE0F901F9018951F920F920FB60F9247
:1009300011242F938F939F93EF93FF93E0911F02C6
:10094000F09120028081E0912502F091260282FD43
:100950001BC09081809128028F5F8F7320912902A4
:10096000821741F0E0912802F0E0E15FFD4F958FA2
:1009700080932802FF91EF919F918F912F910F907B
:100980000FBE0F901F9018958081F4CF1F920F9289
:100990000FB60F9211242F933F938F939F93AF9392
:1009A000BF938091F8019091F901A091FA01B09163
:1009B000FB013091F70123E0230F2D3758F5019605
:1009C000A11DB11D2093F7018093F8019093F901C7
:1009D000A093FA01B093FB018091FC019091FD017D
:1009E000A091FE01B091FF010196A11DB11D809360
:1009F000FC019093FD01A093FE01B093FF01BF9114
:100A0000AF919F918F913F912F910F900FBE0F90BB
:100A10001F90189526E8230F0296A11DB11DD2CF75
:100A20001F920F920FB60F9211242F933F934F9363
:100A30005F936F937F938F939F93AF93BF93EF9346
:100A4000FF93E0910201F09103010995FF91EF916D
:100A5000BF91AF919F918F917F916F915F914F91D6
:100A60003F912F910F900FBE0F901F9018951F92DE
:100A70000F920FB60F9211242F933F934F935F93D2
:100A80006F937F938F939F93AF93BF93EF93FF9356
:100A9000E0910001F09101010995FF91EF91BF9163
:100AA000AF919F918F917F916F915F914F913F9106
:100AB0002F910F900FBE0F901F9018951F920F92BD
:100AC0000FB60F9211242F933F934F935F936F9321
:100AD0007F938F939F93AF93BF93EF93FF938091F7
:100AE000B900887F803609F44AC0F0F5883209F4ED
:100AF000A7C018F5803109F49BC0B8F4882309F425
:100B0000F9C0883009F494C0FF91EF91BF91AF9183
:100B10009F918F917F916F915F914F913F912F9115
:100B20000F900FBE0F901F901895883109F488C060
:100B3000803251F78093D40114C0803409F49DC0F1
:100B400040F48033B9F38833F9F68093D40185EC0F
:100B5000B0C0803509F485C0883509F496C0883462
:100B600099F60E949B02D0CF883909F48CC038F5E1
:100B7000883729F050F4883611F0803729F683E061
:100B8000809306021092B00157C0883809F47BC0E8
:100B9000803919F0803809F0B7CF8091B0018032E8
:100BA00008F071C0E091B00181E08E0F8093B00138
:100BB0008091BB00F0E0E057FE4F80833DC0803B5A
:100BC00039F0E0F4803A09F479C0883A09F09CCF12
:100BD00084E08093060210928F0110928E01E091C2
:100BE0000202F0910302099580918E0181110FC0DC
:100BF00081E080938E0110926E0109C0803C09F45F
:100C0000A6CF883C09F4A3CF883B09F07DCFE091C3
:100C10008F0181E08E0F80938F01F0E0E259FE4F4B
:100C200080818093BB0090918F0180918E0129C0BB
:100C30008091B1018093BB0085EC8093BC0064CFB0
:100C40009091D3018091D201981758F5E091D3018A
:100C500081E08E0F8093D301F0E0EE54FE4F80814F
:100C6000E9CFE091D30181E08E0F8093D301809191
:100C7000BB00F0E0EE54FE4F80839091D301809151
:100C8000D2019817C8F285E8D8CFE091D30181E06E
:100C90008E0F8093D3018091BB00F0E0EE54FE4FA5
:100CA00080838091050281115CCF81E080930402F2
:100CB00084EA8093BC001092060226CF85EC8093D4
:100CC000BC00109206028091B001803230F4E091B5
:100CD000B001F0E0E057FE4F10826091B00170E08B
:100CE000E0910002F091010280E991E009951092F3
:100CF000B0010ACF1092D40134CFEFE0F2E01382BA
:100D0000128288EE93E0A0E0B0E084839583A6830E
:100D1000B78320E131E03183208325EC30E0358753
:100D2000248724EC30E03787268720EC30E0318BB5
:100D3000208B21EC30E0338B228B22EC30E0358BA2
:100D4000248B26EC30E0378B268B118E128E138E7F
:100D5000148EECEAF2E01382128284839583A683D8
:100D6000B78382E291E091838083E8EBF2E0138223
:100D7000128284E391E09183808387E2848380E11F
:100D8000818782E0828713860895789484B5826093
:100D900084BD84B5816084BD85B5826085BD85B51F
:100DA000816085BD80916E00816080936E0010929D
:100DB0008100809181008260809381008091810018
:100DC00081608093810080918000816080938000A9
:100DD0008091B10084608093B1008091B000816007
:100DE0008093B00080917A00846080937A00809133
:100DF0007A00826080937A0080917A00816080938B
:100E00007A0080917A00806880937A001092C10005
:100E100061E080E00E94060262E082E00E94060239
:100E200060E083E00E9406028CE890E0909301016C
:100E300080930001809169008C7F826080936900BB
:100E4000E89AE0911F02F091200282E08083E09115
:100E50001B02F0911C021082E0911D02F0911E0213
:100E60008FEC808310922702E0912302F0912402FC
:100E700086E08083E0912102F091220280818061EE
:100E80008083E0912102F09122028081886080833A
:100E9000E0912102F0912202808180688083E091BC
:100EA0002102F091220280818F7D808310920A02BC
:100EB0001092090210920802109207021092060284
:100EC00081E0809305021092040261E082E10E94B9
:100ED000D80161E083E10E94D8018091B9008E7F42
:100EE0008093B9008091B9008D7F8093B90088E428
:100EF0008093B80085E48093BC0080EA90E09093F2
:100F000003028093020281EA90E0909301028093B1
:100F100000021092BD028091C202823018F098E067
:100F20009093BD028093C00262E370E080E090E0A5
:100F30000E9467026091C30288EB92E00E94520314
:100F400068EE73E080E090E00E94670260E388EB67
:100F500092E00E940704CBE4D6E4CE010197F1F7BA
:100F600060E388EB92E00E9407042197F1F760E3C9
:100F700088EB92E00E94070483E592E00197F1F785
:100F800060E288EB92E00E9407046091BD0260621B
:100F900040E088EB92E00E94200484E08093BE024F
:100FA00040E06CE088EB92E00E94200440E061E0C9
:100FB00088EB92E00E942004CBE3DFE1CE010197B1
:100FC000F1F782E08093BF0240E066E088EB92E0B8
:100FD0000E94200440E062E088EB92E00E9420043E
:100FE0002197F1F788E08093C30260E088EB92E0FC
:100FF0000E94520380E00E9437044AE050E06CE314
:1010000071E088EB92E00E94A200C1EBD0E00DE914
:1010100010E029E8E22E20E0F22E30E0C32E30E08E
:10102000D32EFE018491F801A490F701B490BB2067
:1010300009F479C081110E94AF01EB2DF0E0EE0FB1
:10104000FF1FE458FF4FA591B4918C91A82209F499
:101050006AC046E050E067E471E088EB92E00E94ED
:10106000A20010920B0210920C0210920D0210922C
:101070000E028BEFA82EB12C61E080E00E94D80117
:101080006AE070E080E090E00E94670260E080E04B
:101090000E94D8016AE070E080E090E00E94670260
:1010A000F1E0AF1AB10841F720910B0230910C0228
:1010B00040910D0250910E02A6E0B0E00E94C508DA
:1010C00060930B0270930C0280930D0290930E02BA
:1010D00081E00E94370480900B0290900C02A09057
:1010E0000D02B0900E024AE0C501B401B7FE0EC079
:1010F00041E06DE288EB92E00E94200466277727AA
:10110000CB01681979098A099B094AE00E94B90351
:1011100060E080E00E94D80168EC70E080E090E040
:101120000E9467027ECF60E080E00E94D801C11477
:10113000D10409F476CF0E940C01882309F471CF01
:101140000E9400006ECFA1E21A2EAA1BBB1BFD015C
:101150000DC0AA1FBB1FEE1FFF1FA217B307E40796
:10116000F50720F0A21BB30BE40BF50B661F771FEE
:10117000881F991F1A9469F76095709580959095CE
:101180009B01AC01BD01CF0108950E94D608A59F27
:10119000900DB49F900DA49F800D911D1124089572
:1011A000EE0FFF1F0590F491E02D0994A29FB0016E
:1011B000B39FC001A39F700D811D1124911DB29F8B
:0E11C000700D811D1124911D0895F894FFCF2C
:1011CE009902990200004000140054000000000033
:1011DE004201A200CF008F010001DE00F2000000EC
:1011EE0000002303F602B603CC02EF02DC02CD02AE
:1011FE00000000006804A200B6039A0248656172FE
:0E120E0074526174653A0020202020202000D8
:107E0000112484B714BE81FFF0D085E080938100F7
:107E100082E08093C00088E18093C10086E0809377
:107E2000C20080E18093C4008EE0C9D0259A86E02C
:107E300020E33CEF91E0309385002093840096BBD3
:107E4000B09BFECF1D9AA8958150A9F7CC24DD24C4
:107E500088248394B5E0AB2EA1E19A2EF3E0BF2EE7
:107E6000A2D0813461F49FD0082FAFD0023811F036
:107E7000013811F484E001C083E08DD089C08234E0
:107E800011F484E103C0853419F485E0A6D080C0E4
:107E9000853579F488D0E82EFF2485D0082F10E0AE
:107EA000102F00270E291F29000F111F8ED06801E7
:107EB0006FC0863521F484E090D080E0DECF843638
:107EC00009F040C070D06FD0082F6DD080E0C81688
:107ED00080E7D80618F4F601B7BEE895C0E0D1E017
:107EE00062D089930C17E1F7F0E0CF16F0E7DF06D8
:107EF00018F0F601B7BEE89568D007B600FCFDCFD4
:107F0000A601A0E0B1E02C9130E011968C91119780
:107F100090E0982F8827822B932B1296FA010C0160
:107F200087BEE89511244E5F5F4FF1E0A038BF0790
:107F300051F7F601A7BEE89507B600FCFDCF97BE46
:107F4000E89526C08437B1F42ED02DD0F82E2BD052
:107F50003CD0F601EF2C8F010F5F1F4F84911BD097
:107F6000EA94F801C1F70894C11CD11CFA94CF0C13
:107F7000D11C0EC0853739F428D08EE10CD085E9AC
:107F80000AD08FE07ACF813511F488E018D01DD067
:107F900080E101D065CF982F8091C00085FFFCCF94
:107FA0009093C60008958091C00087FFFCCF809118
:107FB000C00084FD01C0A8958091C6000895E0E648
:107FC000F0E098E1908380830895EDDF803219F02E
:107FD00088E0F5DFFFCF84E1DECF1F93182FE3DFCA
:107FE0001150E9F7F2DF1F91089580E0E8DFEE27F6
:047FF000FF270994CA
:027FFE00040479
:0400000300007E007B
:00000001FF
