:100000000C9458000C9480000C9480000C94800098
:100010000C9480000C9480000C9480000C94800060
:100020000C9480000C9480000C9480000C94800050
:100030000C9480000C9480000C9480000C94800040
:100040000C94D5020C9480000C9480000C948000D9
:100050000C9480000C9480000C9480000C94800020
:100060000C941F030C948000000000002500280061
:100070002B00040404040404040402020202020229
:10008000030303030303010204081020408001025C
:1000900004081020010204081020000000080002DB
:1000A00001000003040700000000000000003E04FF
:1000B00011241FBECFEFD8E0DEBFCDBF11E0A0E01E
:1000C000B1E0E2EEFAE002C005900D92A433B10770
:1000D000D9F722E0A4E3B1E001C01D92A930B20734
:1000E000E1F710E0C8E5D0E004C02197FE010E94CE
:1000F0006905C735D107C9F70E945E040C946F05E6
:100100000C94000090E0FC01E656FF4F2491FC01A6
:10011000EA57FF4F3491FC01EE58FF4FE491EE2374
:10012000B1F0222339F02330E9F090F4213001F1CD
:10013000223011F1F0E0EE0FFF1FE859FF4FA591BB
:10014000B4918FB7F894EC913E2B3C938FBF0895F8
:100150002730A9F02830C9F0243061F78091800061
:100160008F7D03C0809180008F7780938000E2CFE5
:1001700084B58F7784BDDECF84B58F7DFBCF809132
:10018000B0008F778093B000D5CF8091B0008F7D85
:10019000F9CF08950895AF92BF92CF92DF92EF9278
:1001A000FF920F931F93CF93DF936C017B018B0121
:1001B000040F151FEB015E01AE18BF08C017D10771
:1001C00059F06991D601ED91FC910190F081E02DFB
:1001D000C6010995892B79F7C501DF91CF911F9150
:1001E0000F91FF90EF90DF90CF90BF90AF90089568
:1001F0003FB7F8948091E2019091E301A091E4016E
:10020000B091E50126B5A89B05C02F3F19F00196D6
:10021000A11DB11D3FBFBA2FA92F982F8827BC0160
:10022000CD01620F711D811D911D42E0660F771F88
:10023000881F991F4A95D1F708958F929F92AF9288
:10024000BF92CF92DF92EF92FF924B015C010E942E
:10025000F8006B017C010E94F8006C197D098E0981
:100260009F09683E734081059105A8F321E0821A39
:100270009108A108B10888EEC80E83E0D81EE11CE1
:10028000F11C81149104A104B10429F7FF90EF90AF
:10029000DF90CF90BF90AF909F908F90089508957A
:1002A00085ED8093BC008091BC0084FDFCCF109252
:1002B000EC01089520917401260F3327331F21325A
:1002C0003105ECF42091EC01FC0190E080E0243059
:1002D00069F082E00895A09174012191AC014C5A1B
:1002E0005E4FA40FB52FB11D2C930196861798F37E
:1002F00080917401680F6093740180E0089581E03B
:1003000008950895E091F0018091EF01E81730F42D
:10031000F0E0EC5CFE4F808190E008958FEF9FEF5E
:1003200008959091F0018091EF012FEF3FEF981722
:1003300048F4E92FF0E0EC5CFE4F208130E09F5F55
:100340009093F001C90108958091EF019091F0011F
:10035000891B990B0895CF92DF92EF92FF920F9332
:100360001F93CF93DF937C01CB018A012091BB01C6
:10037000222389F0EB016B01C40ED51ECC15DD05DF
:1003800069F06991D701ED91FC910190F081E02D28
:10039000C7010995F3CF642F0E945A01C801DF916C
:1003A000CF911F910F91FF90EF90DF90CF90089524
:1003B000CF93DF931F92CDB7DEB769832091BB0146
:1003C0002223F9F02091ED01203258F021E030E0B5
:1003D000FC013383228390E080E00F90DF91CF9186
:1003E00008958091EE01E82FF0E0E454FE4F9981EA
:1003F00090838F5F8093EE018093ED0181E090E028
:10040000ECCF61E0CE0101960E945A01F7CFCF9365
:10041000FC01C48121E02093BB01C093DC01109258
:10042000EE011092ED018385682B81EF91E00E942F
:10043000D8019091ED01913208F03FC08091EC011C
:100440008111FCCF82E08093EC0181E08093EB018D
:100450008FEF8093BA011092B9019093B801ACEB81
:10046000B1E0E8E9F1E080E098132FC01092970125
:1004700080919701CC0FC82BC09397018091EA011E
:10048000813039F51092EA01809197018093BB0089
:100490008091BC0083FDF8CF85EC8093BC008091F7
:1004A000EC018230E1F38091BA018F3F31F080910D
:1004B000BA01803211F08091BA011092EE011092CF
:1004C000ED011092BB01CF9108952D9121938F5F83
:1004D000CBCF85EEE2CF90E080E008950F931F939D
:1004E000CF938C01C62F0E9407026C2F6460C80155
:1004F0000E9407026C2F6B7FC8010E94070283ECE9
:1005000090E00197F1F7CF911F910F9108950F930C
:100510001F93CF93DF938C01D62FC42F607F642B62
:100520000E946E0280E1D89FB00111246C2BC8019B
:10053000DF91CF911F910F910C946E02CF93DF93B7
:10054000CDB7DEB728970FB6F894DEBF0FBECDBF8C
:1005500098E0E0E0F1E0DE01119601900D929A95AD
:10056000E1F790910502981708F48FEF90E0880F5B
:10057000991F21E030E02C0F3D1F820F931FFC01DB
:100580006081606840E08DEF91E028960FB6F894A6
:10059000DEBF0FBECDBFDF91CF910C94870241E04B
:1005A0000E94870281E090E008951F920F920FB69B
:1005B0000F9211242F933F938F939F93AF93BF93E9
:1005C0008091DE019091DF01A091E001B091E10105
:1005D0003091DD0123E0230F2D3758F50196A11D41
:1005E000B11D2093DD018093DE019093DF01A09384
:1005F000E001B093E1018091E2019091E301A091CB
:10060000E401B091E5010196A11DB11D8093E201C5
:100610009093E301A093E401B093E501BF91AF9102
:100620009F918F913F912F910F900FBE0F901F9030
:10063000189526E8230F0296A11DB11DD2CF1F9257
:100640000F920FB60F9211242F933F934F935F9306
:100650006F937F938F939F93AF93BF93EF93FF938A
:100660008091B900887F803609F44AC0F0F588325D
:1006700009F4A7C018F5803109F49BC0B8F48823A9
:1006800009F4F9C0883009F494C0FF91EF91BF914B
:10069000AF919F918F917F916F915F914F913F911A
:1006A0002F910F900FBE0F901F901895883109F46D
:1006B00088C0803251F78093BA0114C0803409F4A5
:1006C0009DC040F48033B9F38833F9F68093BA01C2
:1006D00085ECB0C0803509F485C0883509F496C032
:1006E000883499F60E945001D0CF883909F48CC023
:1006F00038F5883729F050F4883611F0803729F61C
:1007000083E08093EC011092960157C0883809F479
:100710007BC0803919F0803809F0B7CF80919601FD
:10072000803208F071C0E091960181E08E0F8093D5
:1007300096018091BB00F0E0EA58FE4F80833DC0F7
:10074000803B39F0E0F4803A09F479C0883A09F046
:100750009CCF84E08093EC0110927501109274019B
:10076000E091E801F091E90109958091740181110E
:100770000FC081E0809374011092540109C0803C45
:1007800009F4A6CF883C09F4A3CF883B09F07DCFBC
:10079000E091750181E08E0F80937501F0E0EC5AD5
:1007A000FE4F80818093BB00909175018091740110
:1007B00029C0809197018093BB0085EC8093BC0099
:1007C00064CF9091B9018091B801981758F5E091E4
:1007D000B90181E08E0F8093B901F0E0E856FE4F39
:1007E0008081E9CFE091B90181E08E0F8093B9015A
:1007F0008091BB00F0E0E856FE4F80839091B901F4
:100800008091B8019817C8F285E8D8CFE091B90176
:1008100081E08E0F8093B9018091BB00F0E0E85633
:10082000FE4F80838091EB0181115CCF81E080934A
:10083000EA0184EA8093BC001092EC0126CF85EC9B
:100840008093BC001092EC0180919601803230F4CC
:10085000E0919601F0E0EA58FE4F10826091960117
:1008600070E0E091E601F091E70186E791E00995FB
:10087000109296010ACF1092BA0134CFE1EFF1E065
:100880001382128288EE93E0A0E0B0E08483958327
:10089000A683B7838CE091E091838083EDEFF1E054
:1008A000138212828EE191E09183808387E28483B8
:1008B00080E1818782E0828713860895789484B5E9
:1008C000826084BD84B5816084BD85B5826085BD4C
:1008D00085B5816085BD80916E00816080936E00DA
:1008E00010928100809181008260809381008091CC
:1008F000810081608093810080918000816080937D
:1009000080008091B10084608093B1008091B0003C
:1009100081608093B00080917A00846080937A0037
:1009200080917A00826080937A0080917A00816061
:1009300080937A0080917A00806880937A00109288
:10094000C1001092F0011092EF011092EE0110928E
:10095000ED011092EC0181E08093EB011092EA012D
:1009600082E10E94820083E10E9482008091B900AE
:100970008E7F8093B9008091B9008D7F8093B900FC
:1009800088E48093B80085E48093BC0089EC90E013
:100990009093E9018093E8018AEC90E09093E7015D
:1009A0008093E6011092020280910702823018F0D3
:1009B00098E0909302028093050262E370E080E089
:1009C00090E00E941D01609108028DEF91E00E946D
:1009D000070268EE73E080E090E00E941D0160E392
:1009E0008DEF91E00E946E02CBE4D6E4CE01019738
:1009F000F1F760E38DEF91E00E946E022197F1F72D
:100A000060E38DEF91E00E946E0283E592E0019732
:100A1000F1F760E28DEF91E00E946E0260910202B8
:100A2000606240E08DEF91E00E94870284E0809355
:100A3000030240E06CE08DEF91E00E94870240E00D
:100A400061E08DEF91E00E948702CBE3DFE1CE0110
:100A50000197F1F782E08093040240E066E08DEFB9
:100A600091E00E94870240E062E08DEF91E00E94F9
:100A700087022197F1F788E08093080260E08DEF0C
:100A800091E00E94070280E00E949E024AE050E04E
:100A900066E271E08DEF91E00E94CB0081E00E9460
:100AA0009E02C0E0D0E081E00E949E0242E050E061
:100AB00061E371E08DEF91E00E94CB0068EC70E0A3
:100AC00080E090E00E941D01209769F30E940000E1
:100AD000EACFEE0FFF1F0590F491E02D0994F894F2
:020AE000FFCF46
:100AE200000040001400540000000000D801AB01D7
:100AF2006B028101A4019101820100000000CF027A
:100B0200CB006B024F014865617274526174653AA1
:040B12000038320075
:00000001FF
