:100000000C945D000C9485000C9485000C94850084
:100010000C9485000C9485000C9485000C9485004C
:100020000C9485000C9485000C9485000C9485003C
:100030000C9485000C9485000C9485000C9485002C
:100040000C9430030C9485000C9485000C9485006E
:100050000C9485000C9485000C9485000C9485000C
:100060000C947A030C948500000000080002010043
:100070000003040700000000000000000000000072
:10008000250028002B0000000000240027002A0083
:10009000040404040404040402020202020203032E
:1000A0000303030301020408102040800102040836
:1000B0001020010204081020990411241FBECFEF64
:1000C000D8E0DEBFCDBF11E0A0E0B1E0ECE2F1E1AD
:1000D00002C005900D92AE33B107D9F722E0AEE32E
:1000E000B1E001C01D92A331B207E1F710E0CDE508
:1000F000D0E004C02197FE010E948E08CC35D107C4
:10010000C9F70E94B9040C9494080C940000089557
:100110000895AF92BF92CF92DF92EF92FF920F932A
:100120001F93CF93DF936C017B018B01040F151F8D
:10013000EB015E01AE18BF08C017D10759F06991F5
:10014000D601ED91FC910190F081E02DC601099559
:10015000892B79F7C501DF91CF911F910F91FF9006
:10016000EF90DF90CF90BF90AF90089590E0FC01AA
:10017000E859FF4F2491FC01EC55FF4F3491FC01ED
:10018000E057FF4FE491EE23C9F0222339F02330EA
:1001900001F1A8F4213019F1223029F1F0E0EE0F3D
:1001A000FF1FE458FF4FA591B4918FB7F894EC91DD
:1001B000611126C030953E233C938FBF08952730B0
:1001C000A9F02830C9F0243049F7809180008F7D54
:1001D00003C0809180008F7780938000DFCF84B54B
:1001E0008F7784BDDBCF84B58F7DFBCF8091B0004E
:1001F0008F778093B000D2CF8091B0008F7DF9CF00
:100200003E2BDACF3FB7F8948091EC019091ED014D
:10021000A091EE01B091EF0126B5A89B05C02F3F3C
:1002200019F00196A11DB11D3FBFBA2FA92F982F1C
:100230008827BC01CD01620F711D811D911D42E017
:10024000660F771F881F991F4A95D1F708958F92DF
:100250009F92AF92BF92CF92DF92EF92FF924B01AB
:100260005C010E9402016B017C010E9402016C1979
:100270007D098E099F09683E734081059105A8F3A9
:1002800021E0821A9108A108B10888EEC80E83E027
:10029000D81EE11CF11C81149104A104B10429F7BA
:1002A000FF90EF90DF90CF90BF90AF909F908F9096
:1002B0000895089585ED8093BC008091BC0084FD75
:1002C000FCCF1092F601089520917E01260F33276E
:1002D000331F21323105ECF42091F601FC0190E04E
:1002E00080E0243069F082E00895A0917E012191A0
:1002F000AC01425A5E4FA40FB52FB11D2C9301964D
:10030000861798F380917E01680F60937E0180E0EC
:10031000089581E008950895E091FA018091F9012E
:10032000E81730F4F0E0E25CFE4F808190E0089541
:100330008FEF9FEF08959091FA018091F9012FEFCF
:100340003FEF981748F4E92FF0E0E25CFE4F208180
:1003500030E09F5F9093FA01C90108958091F901FF
:100360009091FA01891B990B0895CF92DF92EF9239
:10037000FF920F931F93CF93DF937C01CB018A01F0
:100380002091C501222389F0EB016B01C40ED51E1B
:10039000CC15DD0569F06991D701ED91FC910190D3
:1003A000F081E02DC7010995F3CF642F0E9464010D
:1003B000C801DF91CF911F910F91FF90EF90DF90D7
:1003C000CF900895CF93DF931F92CDB7DEB76983A7
:1003D0002091C5012223F9F02091F701203258F035
:1003E00021E030E0FC013383228390E080E00F9035
:1003F000DF91CF9108958091F801E82FF0E0EA5362
:10040000FE4F998190838F5F8093F8018093F7016D
:1004100081E090E0ECCF61E0CE0101960E946401A2
:10042000F7CFCF93FC01C48121E02093C501C09395
:10043000E6011092F8011092F7018385682B8BEF8B
:1004400091E00E94E2019091F701913208F03FC0E3
:100450008091F6018111FCCF82E08093F60181E06A
:100460008093F5018FEF8093C4011092C3019093A4
:10047000C201A6ECB1E0E2EAF1E080E098132FC0FF
:100480001092A1018091A101CC0FC82BC093A101B2
:100490008091F401813039F51092F4018091A1012D
:1004A0008093BB008091BC0083FDF8CF85EC8093E6
:1004B000BC008091F6018230E1F38091C4018F3F4E
:1004C00031F08091C401803211F08091C40110920A
:1004D000F8011092F7011092C501CF9108952D9166
:1004E00021938F5FCBCF85EEE2CF90E080E008953F
:1004F000FC0101900020E9F73197AF01481B590B2F
:10050000BC0187E092E00C9489008F929F92AF9299
:10051000BF920F931F93CF93DF93CDB7DEB7A19711
:100520000FB6F894DEBF0FBECDBF19A2423008F45B
:100530004AE08E010F5D1F4F842E912CB12CA12C0F
:10054000A50194010E946C08E62FB901CA01EA30A6
:10055000F4F4E05DD801EE938D01232B242B252BA1
:1005600079F790E080E0109719F0CD010E947802B1
:10057000A1960FB6F894DEBF0FBECDBFDF91CF912D
:100580001F910F91BF90AF909F908F900895E95C5D
:10059000E1CF0F931F93CF938C01C62F0E941102BE
:1005A0006C2F6460C8010E9411026C2F6B7FC80120
:1005B0000E94110283EC90E00197F1F7CF911F9117
:1005C0000F9108950F931F93CF93DF938C01D62F34
:1005D000C42F607F642B0E94C90280E1D89FB001C4
:1005E00011246C2BC801DF91CF911F910F910C94B6
:1005F000C902CF93DF93CDB7DEB728970FB6F89433
:10060000DEBF0FBECDBF98E0E0E0F1E0DE01119665
:1006100001900D929A95E1F790910F02981708F4C6
:100620008FEF90E0880F991F21E030E02C0F3D1FE5
:10063000820F931FFC016081606840E087E092E0D8
:1006400028960FB6F894DEBF0FBECDBFDF91CF91D5
:100650000C94E20241E00E94E20281E090E0089501
:100660001F920F920FB60F9211242F933F938F93E7
:100670009F93AF93BF938091E8019091E901A0917E
:10068000EA01B091EB013091E70123E0230F2D3710
:1006900058F50196A11DB11D2093E7018093E80153
:1006A0009093E901A093EA01B093EB018091EC01F2
:1006B0009091ED01A091EE01B091EF010196A11D85
:1006C000B11D8093EC019093ED01A093EE01B093E6
:1006D000EF01BF91AF919F918F913F912F910F901B
:1006E0000FBE0F901F90189526E8230F0296A11DAC
:1006F000B11DD2CF1F920F920FB60F9211242F93DC
:100700003F934F935F936F937F938F939F93AF9399
:10071000BF93EF93FF938091B900887F803609F4EF
:100720004AC0F0F5883209F4A7C018F5803109F401
:100730009BC0B8F4882309F4F9C0883009F494C048
:10074000FF91EF91BF91AF919F918F917F916F91A9
:100750005F914F913F912F910F900FBE0F901F907F
:100760001895883109F488C0803251F78093C4010C
:1007700014C0803409F49DC040F48033B9F3883349
:10078000F9F68093C40185ECB0C0803509F485C0CA
:10079000883509F496C0883499F60E945A01D0CF62
:1007A000883909F48CC038F5883729F050F4883638
:1007B00011F0803729F683E08093F6011092A001B2
:1007C00057C0883809F47BC0803919F0803809F0A7
:1007D000B7CF8091A001803208F071C0E091A001F4
:1007E00081E08E0F8093A0018091BB00F0E0E05883
:1007F000FE4F80833DC0803B39F0E0F4803A09F43D
:1008000079C0883A09F09CCF84E08093F601109279
:100810007F0110927E01E091F201F091F3010995C0
:1008200080917E0181110FC081E080937E01109242
:100830005E0109C0803C09F4A6CF883C09F4A3CF2F
:10084000883B09F07DCFE0917F0181E08E0F80939E
:100850007F01F0E0E25AFE4F80818093BB009091CF
:100860007F0180917E0129C08091A1018093BB000E
:1008700085EC8093BC0064CF9091C3018091C2014C
:10088000981758F5E091C30181E08E0F8093C30162
:10089000F0E0EE55FE4F8081E9CFE091C30181E0A9
:1008A0008E0F8093C3018091BB00F0E0EE55FE4FA8
:1008B00080839091C3018091C2019817C8F285E8A6
:1008C000D8CFE091C30181E08E0F8093C301809166
:1008D000BB00F0E0EE55FE4F80838091F501811161
:1008E0005CCF81E08093F40184EA8093BC00109295
:1008F000F60126CF85EC8093BC001092F601809122
:10090000A001803230F4E091A001F0E0E058FE4F09
:1009100010826091A00170E0E091F001F091F1018E
:1009200080E891E009951092A0010ACF1092C401CD
:1009300034CFEBEFF1E01382128288EE93E0A0E077
:10094000B0E084839583A683B7838CE091E09183A4
:100950008083E7E0F2E0138212828EE191E09183DE
:10096000808387E2848380E1818782E082871386A7
:100970000895789484B5826084BD84B5816084BD17
:1009800085B5826085BD85B5816085BD80916E002D
:10099000816080936E00109281008091810082605E
:1009A000809381008091810081608093810080919B
:1009B00080008160809380008091B100846080938A
:1009C000B1008091B00081608093B00080917A0086
:1009D000846080937A0080917A00826080937A00AC
:1009E00080917A00816080937A0080917A0080689B
:1009F00080937A001092C100E5EAF0E02491E1E9E9
:100A0000F0E08491882399F090E0880F991FFC0111
:100A1000EA57FF4FA591B491FC01E458FF4F85912F
:100A200094918FB7F894EC91E22BEC938FBF1092D6
:100A3000FA011092F9011092F8011092F701109248
:100A4000F60181E08093F5011092F40161E082E10A
:100A50000E94B60061E083E10E94B6008091B90077
:100A60008E7F8093B9008091B9008D7F8093B9000B
:100A700088E48093B80085E48093BC0087E890E028
:100A80009093F3018093F20188E890E09093F10154
:100A90008093F00110920C0280911102823018F0C4
:100AA00098E090930C0280930F0262E370E080E084
:100AB00090E00E9427016091120287E092E00E947C
:100AC000110268EE73E080E090E00E94270160E38D
:100AD00087E092E00E94C902CBE4D6E4CE01019700
:100AE000F1F760E387E092E00E94C9022197F1F7F5
:100AF00060E387E092E00E94C90283E592E00197FB
:100B0000F1F760E287E092E00E94C90260910C0276
:100B1000606240E087E092E00E94E20284E080931D
:100B20000D0240E06CE087E092E00E94E20240E0CB
:100B300061E087E092E00E94E202CBE3DFE1CE01D8
:100B40000197F1F782E080930E0240E066E087E0D3
:100B500092E00E94E20240E062E087E092E00E94C0
:100B6000E2022197F1F788E08093120260E087E0CB
:100B700092E00E94110280E00E94F90286E291E078
:100B80000E94780281E00E94F90210E4C0E0D0E007
:100B900061E081E00E94B60010937C0080917A00B1
:100BA000806480937A0080917A0086FDFCCF8091EA
:100BB000780060917900762F682F072E000C880B43
:100BC000990B0E9445076B017C014B015C016CEDA8
:100BD00075E080E090E00E94270160E081E00E94E3
:100BE000B60081E00E94F902A7019601C701B60193
:100BF0000E946708882381F081E391E00E947802D7
:100C000068EC70E080E090E00E942701209709F4F2
:100C1000BFCF0E940000BCCF26013701E89477F8CF
:100C20002FEF3FEF4FE75FE7C301B2010E94670874
:100C300081110DC02FEF3FEF4FE75FE7C301B20116
:100C40000E940F0718161CF485E391E0D7CF2FEF11
:100C50003FEF4FE75FE4C701B6010E94F5071816A2
:100C60001CF489E391E0CACF2FEF3FEF4FE75FEC31
:100C7000C701B6010E940F0787FDF3CF20E030E0E7
:100C8000A901C701B6010E940F0787FF0CC041E010
:100C90006DE287E092E00E94E20246015701B7FA56
:100CA000B094B7F8B0942AE037ED43EA5BE3C501AE
:100CB000B4010E94A3064B015C010E9414076B0162
:100CC0007C010E9443079B01AC01C501B4010E9455
:100CD000A2064B015C014AE0C701B6010E948502F1
:100CE00041E06EE287E092E00E94E20220E030E024
:100CF00040E251E4C501B4010E94FA074B015C01D6
:100D00000E9414076B01F12CE12C4AE0C701B601E7
:100D10000E948502C701B6010E9443079B01AC01F6
:100D2000C501B4010E94A20620E030E040E251E497
:100D30000E94FA070E94140790E080E04AE00E94B7
:100D400085025ECF5058BB27AA270E94BA060C9492
:100D5000BB070E94AD0738F00E94B40720F039F4B9
:100D60009F3F19F426F40C94AA070EF4E095E7FBD4
:100D70000C94A407E92F0E94CC0758F3BA17620716
:100D800073078407950720F079F4A6F50C94EE0715
:100D90000EF4E0950B2EBA2FA02D0B01B901900196
:100DA0000C01CA01A0011124FF27591B99F0593FDA
:100DB00050F4503E68F11A16F040A22F232F342F22
:100DC0004427585FF3CF469537952795A795F04070
:100DD0005395C9F77EF41F16BA0B620B730B840B85
:100DE000BAF09150A1F0FF0FBB1F661F771F881F3D
:100DF000C2F70EC0BA0F621F731F841F48F4879595
:100E000077956795B795F7959E3F08F0B0CF939586
:100E1000880F08F09927EE0F9795879508950E94FF
:100E2000800708F481E008950E94D40788F09F5756
:100E300098F0B92F9927B751B0F0E1F0660F771FFE
:100E4000881F991F1AF0BA95C9F714C0B13091F0F4
:100E50000E94EE07B1E008950C94EE07672F782FFB
:100E60008827B85F39F0B93FCCF3869577956795B9
:100E7000B395D9F73EF490958095709561957F4F25
:100E80008F4F9F4F0895E89409C097FB3EF49095CB
:100E90008095709561957F4F8F4F9F4F9923A9F053
:100EA000F92F96E9BB279395F695879577956795E2
:100EB000B795F111F8CFFAF4BB0F11F460FF1BC026
:100EC0006F5F7F4F8F4F9F4F16C0882311F096E9B9
:100ED00011C0772321F09EE8872F762F05C0662367
:100EE00071F096E8862F70E060E02AF09A95660F20
:100EF000771F881FDAF7880F9695879597F90895D9
:100F0000990F0008550FAA0BE0E8FEEF161617061A
:100F1000E807F907C0F012161306E407F50798F082
:100F2000621B730B840B950B39F40A2661F0232B9B
:100F3000242B252B21F408950A2609F4A140A69517
:100F40008FEF811D811D089597F99F6780E870E0FC
:100F500060E008959FEF80EC089500240A9416162F
:100F6000170618060906089500240A941216130697
:100F7000140605060895092E0394000C11F4882325
:100F800052F0BB0F40F4BF2B11F460FF04C06F5F41
:100F90007F4F8F4F9F4F089557FD9058440F551F17
:100FA00059F05F3F71F04795880F97FB991F61F0EB
:100FB0009F3F79F087950895121613061406551F62
:100FC000F2CF4695F1DF08C0161617061806991FCE
:100FD000F1CF86957105610508940895E894BB27C3
:100FE00066277727CB0197F908950E94800708F4B8
:100FF0008FEF08950E940D080C94BB070E94AD0767
:1010000038F00E94B40720F0952311F00C94A40747
:101010000C94AA0711240C94EF070E94CC0770F3DC
:10102000959FC1F3950F50E0551F629FF001729F8D
:10103000BB27F00DB11D639FAA27F00DB11DAA1F9C
:10104000649F6627B00DA11D661F829F2227B00DE9
:10105000A11D621F739FB00DA11D621F839FA00D74
:10106000611D221F749F3327A00D611D231F849FC4
:10107000600D211D822F762F6A2F11249F5750401B
:101080009AF0F1F088234AF0EE0FFF1FBB1F661F96
:10109000771F881F91505040A9F79E3F510580F05F
:1010A0000C94A4070C94EF075F3FE4F3983ED4F34D
:1010B000869577956795B795F795E7959F5FC1F703
:1010C000FE2B880F911D9695879597F908950E949C
:1010D0008007880B990B0895A1E21A2EAA1BBB1B4F
:1010E000FD010DC0AA1FBB1FEE1FFF1FA217B307F4
:1010F000E407F50720F0A21BB30BE40BF50B661F0A
:10110000771F881F991F1A9469F7609570958095CD
:1011100090959B01AC01BD01CF010895EE0FFF1F1B
:0C1120000590F491E02D0994F894FFCFA5
:10112C00000040001400540000000000E201B50172
:10113C0075028B01AE019B018C01000000002A039B
:10114C008900750259014865617274526174653A7F
:0E115C00006E616E00696E66006F76660000C0
:00000001FF
