:100000000C945D000C94EB040C94C4040C948500D7
:100010000C9485000C9485000C9485000C9485004C
:100020000C9485000C9485000C9485000C9485003C
:100030000C9485000C9485000C9485000C9485002C
:100040000C947A040C9485000C9448040C942204BB
:100050000C9485000C9485000C9485000C9485000C
:100060000C9412050C9485000000000800020100A9
:100070000003040700000000000000000000000072
:10008000250028002B0000000000240027002A0083
:10009000040404040404040402020202020203032E
:1000A0000303030301020408102040800102040836
:1000B0001020010204081020310611241FBECFEFCA
:1000C000D8E0DEBFCDBF11E0A0E0B1E0E0E3F1E1B8
:1000D00002C005900D92A834B107D9F722E0A8E438
:1000E000B1E001C01D92AE3BB207E1F710E0CDE5F3
:1000F000D0E004C02197FE010E948108CC35D107D1
:10010000C9F70E9479060C9496080C94000080911F
:10011000050290910602A0910702B0910802019693
:10012000A11DB11D8093050290930602A0930702C2
:10013000B0930802089508950895AF92BF92CF92A8
:10014000DF92EF92FF920F931F93CF93DF936C0197
:100150007B018B01040F151FEB015E01AE18BF0878
:10016000C017D10759F06991D601ED91FC9101902A
:10017000F081E02DC6010995892B79F7C501DF9142
:10018000CF911F910F91FF90EF90DF90CF90BF9094
:10019000AF900895FC01538D448D252F30E0842FBE
:1001A00090E0821B930B541710F0CF96089501979F
:1001B0000895FC01918D828D981761F0A28DAE0F8C
:1001C000BF2FB11D5D968C91928D9F5F9F73928F13
:1001D00090E008958FEF9FEF0895FC01918D828D3F
:1001E000981731F0828DE80FF11D858D90E008950C
:1001F0008FEF9FEF0895FC01918D228D892F90E064
:10020000805C9F4F821B91098F739927089589E025
:1002100092E00E94FB0021E0892B09F420E0822F6C
:10022000089580E090E0892B29F00E940701811158
:100230000C9400000895FC01A48DA80FB92FB11DE6
:10024000A35ABF4F2C91848D90E001968F7399270C
:10025000848FA689B7892C93A089B1898C918370EA
:1002600080648C93938D848D981306C00288F389E3
:10027000E02D80818F7D80830895EF92FF920F9310
:100280001F93CF93DF93EC0181E0888F9B8D8C8D42
:1002900098131AC0E889F989808185FF15C09FB736
:1002A000F894EE89FF896083E889F98980818370F9
:1002B000806480839FBF81E090E0DF91CF911F91A8
:1002C0000F91FF90EF900895F62E0B8D10E00F5FC9
:1002D0001F4F0F731127E02E8C8D8E110CC00FB69F
:1002E00007FCFACFE889F989808185FFF5CFCE0137
:1002F0000E941B01F1CFEB8DEC0FFD2FF11DE35A96
:10030000FF4FF0829FB7F8940B8FEA89FB898081B9
:100310008062CFCFCF93DF93EC01888D8823B9F033
:10032000AA89BB89E889F9898C9185FD03C0808100
:1003300086FD0DC00FB607FCF7CF8C9185FFF2CF7D
:10034000808185FFEDCFCE010E941B01E9CFDF91B7
:10035000CF91089590E0FC01E859FF4F2491FC01F2
:10036000EC55FF4F3491FC01E057FF4FE491EE2331
:10037000C9F0222339F0233001F1A8F4213019F11A
:10038000223029F1F0E0EE0FFF1FE458FF4FA59156
:10039000B4918FB7F894EC91611126C030953E234B
:1003A0003C938FBF08952730A9F02830C9F024303E
:1003B00049F7809180008F7D03C0809180008F7706
:1003C00080938000DFCF84B58F7784BDDBCF84B589
:1003D0008F7DFBCF8091B0008F778093B000D2CF1C
:1003E0008091B0008F7DF9CF3E2BDACF3FB7F894E4
:1003F0008091F6019091F701A091F801B091F90177
:1004000026B5A89B05C02F3F19F00196A11DB11D6F
:100410003FBFBA2FA92F982F8827BC01CD01620FAB
:10042000711D811D911D42E0660F771F881F991F66
:100430004A95D1F708958F929F92AF92BF92CF9233
:10044000DF92EF92FF924B015C010E94F6016B017B
:100450007C010E94F6016C197D098E099F09683E96
:10046000734081059105A8F321E0821A9108A10843
:10047000B10888EEC80E83E0D81EE11CF11C81147F
:100480009104A104B10429F7FF90EF90DF90CF9081
:10049000BF90AF909F908F9008950895089585ED37
:1004A0008093BC008091BC0084FDFCCF10920002C0
:1004B000089520918801260F3327331F21323105FB
:1004C000ECF420910002FC0190E080E0243069F01F
:1004D00082E00895A09188012191AC0148595E4FB6
:1004E000A40FB52FB11D2C930196861798F3809118
:1004F0008801680F6093880180E0089581E0089585
:100500000895E091040280910302E81730F4F0E0CE
:10051000E85BFE4F808190E008958FEF9FEF089594
:1005200090910402809103022FEF3FEF981748F457
:10053000E92FF0E0E85BFE4F208130E09F5F909371
:100540000402C90108958091030290910402891B5D
:10055000990B0895CF92DF92EF92FF920F931F9322
:10056000CF93DF937C01CB018A012091CF0122231D
:1005700089F0EB016B01C40ED51ECC15DD0569F0C9
:100580006991D701ED91FC910190F081E02DC701B7
:100590000995F3CF642F0E945902C801DF91CF91D2
:1005A0001F910F91FF90EF90DF90CF900895CF9320
:1005B000DF931F92CDB7DEB769832091CF0122234D
:1005C000F9F020910102203258F021E030E0FC01E6
:1005D0003383228390E080E00F90DF91CF910895E4
:1005E00080910202E82FF0E0E053FE4F9981908362
:1005F0008F5F809302028093010281E090E0ECCF54
:1006000061E0CE0101960E945902F7CFCF93FC0121
:10061000C48121E02093CF01C093F0011092020227
:10062000109201028385682B86EA92E00E94D7022D
:1006300090910102913208F03FC080910002811137
:10064000FCCF82E08093000281E08093FF018FEF76
:100650008093CE011092CD019093CC01A0EDB1E03A
:10066000ECEAF1E080E098132FC01092AB0180918A
:10067000AB01CC0FC82BC093AB018091FE01813040
:1006800039F51092FE018091AB018093BB008091FF
:10069000BC0083FDF8CF85EC8093BC008091000204
:1006A0008230E1F38091CE018F3F31F08091CE0115
:1006B000803211F08091CE0110920202109201025C
:1006C0001092CF01CF9108952D9121938F5FCBCFC1
:1006D00085EEE2CF90E080E008958F929F92AF92F6
:1006E000BF920F931F93CF93DF93CDB7DEB7A19740
:1006F0000FB6F894DEBF0FBECDBF19A2423008F48A
:100700004AE08E010F5D1F4F842E912CB12CA12C3D
:10071000A50194010E945408E62FB901CA01EA30EC
:1007200044F5E05DD801EE938D01232B242B252B7E
:1007300079F790E080E0109769F0FD0101900020CA
:10074000E9F73197AF014A1B5B0BBD0182EB92E0E9
:100750000E949D00A1960FB6F894DEBF0FBECDBFDC
:10076000DF91CF911F910F91BF90AF909F908F908D
:100770000895E95CD7CF0F931F93CF938C01C62FB9
:100780000E9406036C2F6460C8010E9406036C2F50
:100790006B7FC8010E94060383EC90E00197F1F79C
:1007A000CF911F910F9108950F931F93CF93DF93D4
:1007B0008C01D62FC42F607F642B0E94BB0380E185
:1007C000D89FB00111246C2BC801DF91CF911F91EC
:1007D0000F910C94BB03CF93DF93CDB7DEB728976F
:1007E0000FB6F894DEBF0FBECDBF98E0E4E0F1E0B5
:1007F000DE01119601900D929A95E1F79091BA025F
:10080000981708F48FEF90E0880F991F21E030E0EF
:100810002C0F3D1F820F931FFC016081606840E038
:1008200082EB92E028960FB6F894DEBF0FBECDBFE4
:10083000DF91CF910C94D40341E00E94D40381E076
:1008400090E008951F920F920FB60F9211242F93EC
:100850003F934F935F936F937F938F939F93AF9348
:10086000BF93EF93FF9389E092E00E941B01FF91F9
:10087000EF91BF91AF919F918F917F916F915F9118
:100880004F913F912F910F900FBE0F901F90189591
:100890001F920F920FB60F9211242F938F939F9355
:1008A000EF93FF93E0911902F0911A028081E09199
:1008B0001F02F091200282FD1BC0908180912202D4
:1008C0008F5F8F7320912302821741F0E091220203
:1008D000F0E0E75FFD4F958F80932202FF91EF914B
:1008E0009F918F912F910F900FBE0F901F90189591
:1008F0008081F4CF1F920F920FB60F9211242F9385
:100900003F938F939F93AF93BF938091F201909108
:10091000F301A091F401B091F5013091F10123E0D0
:10092000230F2D3758F50196A11DB11D2093F1011C
:100930008093F2019093F301A093F401B093F50139
:100940008091F6019091F701A091F801B091F90121
:100950000196A11DB11D8093F6019093F701A0931C
:10096000F801B093F901BF91AF919F918F913F91A1
:100970002F910F900FBE0F901F90189526E8230F10
:100980000296A11DB11DD2CF1F920F920FB60F92EA
:1009900011242F933F934F935F936F937F938F9384
:1009A0009F93AF93BF93EF93FF93E0910201F09178
:1009B00003010995FF91EF91BF91AF919F918F91A5
:1009C0007F916F915F914F913F912F910F900FBE4B
:1009D0000F901F9018951F920F920FB60F9211242F
:1009E0002F933F934F935F936F937F938F939F9337
:1009F000AF93BF93EF93FF93E0910001F09101015A
:100A00000995FF91EF91BF91AF919F918F917F9148
:100A10006F915F914F913F912F910F900FBE0F906B
:100A20001F9018951F920F920FB60F9211242F93BB
:100A30003F934F935F936F937F938F939F93AF9366
:100A4000BF93EF93FF938091B900887F803609F4BC
:100A50004AC0F0F5883209F4A7C018F5803109F4CE
:100A60009BC0B8F4882309F4F9C0883009F494C015
:100A7000FF91EF91BF91AF919F918F917F916F9176
:100A80005F914F913F912F910F900FBE0F901F904C
:100A90001895883109F488C0803251F78093CE01CF
:100AA00014C0803409F49DC040F48033B9F3883316
:100AB000F9F68093CE0185ECB0C0803509F485C08D
:100AC000883509F496C0883499F60E944F02D0CF39
:100AD000883909F48CC038F5883729F050F4883605
:100AE00011F0803729F683E0809300021092AA016A
:100AF00057C0883809F47BC0803919F0803809F074
:100B0000B7CF8091AA01803208F071C0E091AA01AC
:100B100081E08E0F8093AA018091BB00F0E0E65740
:100B2000FE4F80833DC0803B39F0E0F4803A09F409
:100B300079C0883A09F09CCF84E08093000210923B
:100B4000890110928801E091FC01F091FD01099565
:100B50008091880181110FC081E0809388011092FB
:100B6000680109C0803C09F4A6CF883C09F4A3CFF2
:100B7000883B09F07DCFE091890181E08E0F809361
:100B80008901F0E0E859FE4F80818093BB0090918D
:100B900089018091880129C08091AB018093BB00BD
:100BA00085EC8093BC0064CF9091CD018091CC0105
:100BB000981758F5E091CD0181E08E0F8093CD011B
:100BC000F0E0E455FE4F8081E9CFE091CD0181E076
:100BD0008E0F8093CD018091BB00F0E0E455FE4F75
:100BE00080839091CD018091CC019817C8F285E85F
:100BF000D8CFE091CD0181E08E0F8093CD0180911F
:100C0000BB00F0E0E455FE4F80838091FF0181112D
:100C10005CCF81E08093FE0184EA8093BC00109257
:100C2000000226CF85EC8093BC00109200028091D8
:100C3000AA01803230F4E091AA01F0E0E657FE4FBD
:100C400010826091AA0170E0E091FA01F091FB013D
:100C50008AE891E009951092AA010ACF1092CE017C
:100C600034CFE9E0F2E01382128288EE93E0A0E054
:100C7000B0E084839583A683B78320E131E031839C
:100C8000208325EC30E03587248724EC30E037875B
:100C9000268720EC30E0318B208B21EC30E0338B49
:100CA000228B22EC30E0358B248B26EC30E0378B26
:100CB000268B118E128E138E148EE6EAF2E01382CA
:100CC000128284839583A683B78382E291E0918325
:100CD0008083E2EBF2E01382128284E391E091835D
:100CE000808387E2848380E1818782E08287138624
:100CF0000895789484B5826084BD84B5816084BD94
:100D000085B5826085BD85B5816085BD80916E00A9
:100D1000816080936E0010928100809181008260DA
:100D20008093810080918100816080938100809117
:100D300080008160809380008091B1008460809306
:100D4000B1008091B00081608093B00080917A0002
:100D5000846080937A0080917A00826080937A0028
:100D600080917A00816080937A0080917A00806817
:100D700080937A001092C100E1EBF0E02491EDE95C
:100D8000F0E08491882399F090E0880F991FFC018E
:100D9000EA57FF4FA591B491FC01E458FF4F8591AC
:100DA00094918FB7F894EC91E22BEC938FBFE6EA25
:100DB000F0E02491E2E9F0E084918823C1F090E032
:100DC000880F991FFC01EA57FF4FC591D491FC0190
:100DD000E458FF4FA591B4919FB7F8943881822FC2
:100DE000809583238883EC91E22BEC939FBF87E867
:100DF00090E09093010180930001809169008C7FC5
:100E0000826080936900E89AE0911902F0911A02D9
:100E100082E08083E0911502F09116021082E09149
:100E20001702F09118028FEC808310922102E0915A
:100E30001D02F0911E0286E08083E0911B02F0917A
:100E40001C02808180618083E0911B02F0911C0272
:100E5000808188608083E0911B02F0911C02808178
:100E600080688083E0911B02F0911C0280818F7D5D
:100E700080831092040210920302109202021092D8
:100E800001021092000281E08093FF011092FE01A6
:100E900061E082E10E94AA0161E083E10E94AA016F
:100EA0008091B9008E7F8093B9008091B9008D7FC9
:100EB0008093B90088E48093B80085E48093BC00F7
:100EC0008BE990E09093FD018093FC018CE990E028
:100ED0009093FB018093FA011092B7028091BC02BB
:100EE000823018F098E09093B7028093BA0262E3E0
:100EF00070E080E090E00E941B026091BD0282EBF6
:100F000092E00E94060368EE73E080E090E00E94A9
:100F10001B0260E382EB92E00E94BB03CBE4D6E4C9
:100F2000CE010197F1F760E382EB92E00E94BB03F0
:100F30002197F1F760E382EB92E00E94BB0383E527
:100F400092E00197F1F760E282EB92E00E94BB032E
:100F50006091B702606240E082EB92E00E94D403AD
:100F600084E08093B80240E06CE082EB92E00E9463
:100F7000D40340E061E082EB92E00E94D403CBE333
:100F8000DFE1CE010197F1F782E08093B90240E002
:100F900066E082EB92E00E94D40340E062E082EBE4
:100FA00092E00E94D4032197F1F788E08093BD027C
:100FB00060E082EB92E00E94060380E00E94EB0377
:100FC0004AE050E06CE371E082EB92E00E949D0009
:100FD000C0E0D0E0109205021092060210920702C3
:100FE000109208020BEF10E061E08DE00E94AA0170
:100FF0006AE070E080E090E00E941B0260E08DE01B
:101000000E94AA016AE070E080E090E00E941B026A
:101010000150110949F720910502309106024091D3
:10102000070250910802A6E0B0E00E9476086093A3
:10103000050270930602809307029093080281E0F4
:101040000E94EB03C0900502D0900602E0900702D8
:10105000F09008024AE0C701B601F7FE0EC041E079
:101060006DE282EB92E00E94D40366277727CB01E2
:101070006C197D098E099F094AE00E946D0360E0AA
:101080008DE00E94AA0168EC70E080E090E00E9490
:101090001B02209709F49ECF0E940701882309F4C0
:1010A00099CF0E94000096CFA1E21A2EAA1BBB1B6B
:1010B000FD010DC0AA1FBB1FEE1FFF1FA217B30724
:1010C000E407F50720F0A21BB30BE40BF50B661F3A
:1010D000771F881F991F1A9469F7609570958095FE
:1010E00090959B01AC01BD01CF0108950E94870836
:1010F000A59F900DB49F900DA49F800D911D11246C
:101100000895EE0FFF1F0590F491E02D0994A29F22
:10111000B001B39FC001A39F700D811D1124911DCB
:10112000B29F700D811D1124911D0895F894FFCF79
:101130004D024D0200004000140054000000000069
:101140003D019D00CA008A01FB00D900ED000000AE
:101150000000D702AA026A038002A3029002810261
:10116000000000001C049D006A034E024865617285
:0811700074526174653A00003D
:107E0000112484B714BE81FFF0D085E080938100F7
:107E100082E08093C00088E18093C10086E0809377
:107E2000C20080E18093C4008EE0C9D0259A86E02C
:107E300020E33CEF91E0309385002093840096BBD3
:107E4000B09BFECF1D9AA8958150A9F7CC24DD24C4
:107E500088248394B5E0AB2EA1E19A2EF3E0BF2EE7
:107E6000A2D0813461F49FD0082FAFD0023811F036
:107E7000013811F484E001C083E08DD089C08234E0
:107E800011F484E103C0853419F485E0A6D080C0E4
:107E9000853579F488D0E82EFF2485D0082F10E0AE
:107EA000102F00270E291F29000F111F8ED06801E7
:107EB0006FC0863521F484E090D080E0DECF843638
:107EC00009F040C070D06FD0082F6DD080E0C81688
:107ED00080E7D80618F4F601B7BEE895C0E0D1E017
:107EE00062D089930C17E1F7F0E0CF16F0E7DF06D8
:107EF00018F0F601B7BEE89568D007B600FCFDCFD4
:107F0000A601A0E0B1E02C9130E011968C91119780
:107F100090E0982F8827822B932B1296FA010C0160
:107F200087BEE89511244E5F5F4FF1E0A038BF0790
:107F300051F7F601A7BEE89507B600FCFDCF97BE46
:107F4000E89526C08437B1F42ED02DD0F82E2BD052
:107F50003CD0F601EF2C8F010F5F1F4F84911BD097
:107F6000EA94F801C1F70894C11CD11CFA94CF0C13
:107F7000D11C0EC0853739F428D08EE10CD085E9AC
:107F80000AD08FE07ACF813511F488E018D01DD067
:107F900080E101D065CF982F8091C00085FFFCCF94
:107FA0009093C60008958091C00087FFFCCF809118
:107FB000C00084FD01C0A8958091C6000895E0E648
:107FC000F0E098E1908380830895EDDF803219F02E
:107FD00088E0F5DFFFCF84E1DECF1F93182FE3DFCA
:107FE0001150E9F7F2DF1F91089580E0E8DFEE27F6
:047FF000FF270994CA
:027FFE00040479
:0400000300007E007B
:00000001FF
