:100000000C945D000C9498040C9471040C9485007D
:100010000C9485000C9485000C9485000C9485004C
:100020000C9485000C9485000C9485000C9485003C
:100030000C9485000C9485000C9485000C9485002C
:100040000C9427040C9485000C94F5030C94CF03B6
:100050000C9485000C9485000C9485000C9485000C
:100060000C94BF040C9485000000000024002700BD
:100070002A0000000000250028002B0004040404CE
:100080000404040402020202020203030303030342
:10009000010204081020408001020408102001021F
:1000A00004081020000000080002010000030407FB
:1000B0000000000000000000DE0511241FBECFEF8D
:1000C000D8E0DEBFCDBF11E0A0E0B1E0ECEBF0E1A5
:1000D00002C005900D92AE34B107D9F722E0AEE42C
:1000E000B1E001C01D92A43CB207E1F710E0CDE5FC
:1000F000D0E004C02197FE010E944708CC35D1070B
:10010000C9F70E9426060C945C080C94000090E04D
:10011000FC01EC55FF4F2491FC01E057FF4F349157
:10012000FC01E458FF4FE491EE23B1F0222339F0B3
:100130002330E9F090F4213001F1223011F1F0E0A8
:10014000EE0FFF1FEE58FF4FA591B4918FB7F894B3
:10015000EC913E2B3C938FBF08952730A9F02830B7
:10016000C9F0243061F7809180008F7D03C08091B9
:1001700080008F7780938000E2CF84B58F7784BD35
:10018000DECF84B58F7DFBCF8091B0008F778093D9
:10019000B000D5CF8091B0008F7DF9CF80910B0258
:1001A00090910C02A0910D02B0910E020196A11D3A
:1001B000B11D80930B0290930C02A0930D02B0939B
:1001C0000E02089508950895AF92BF92CF92DF92E4
:1001D000EF92FF920F931F93CF93DF936C017B01FC
:1001E0008B01040F151FEB015E01AE18BF08C0178D
:1001F000D10759F06991D601ED91FC910190F08100
:10020000E02DC6010995892B79F7C501DF91CF91C2
:100210001F910F91FF90EF90DF90CF90BF90AF9024
:100220000895FC01538D448D252F30E0842F90E0FC
:10023000821B930B541710F0CF96089501970895E1
:10024000FC01918D828D981761F0A28DAE0FBF2FAA
:10025000B11D5D968C91928D9F5F9F73928F90E000
:1002600008958FEF9FEF0895FC01918D828D98176F
:1002700031F0828DE80FF11D858D90E008958FEFAC
:100280009FEF0895FC01918D228D892F90E0805C75
:100290009F4F821B91098F73992708958FE092E0F9
:1002A0000E94420121E0892B09F420E0822F089569
:1002B00080E090E0892B29F00E944E0181110C947E
:1002C00000000895FC01A48DA80FB92FB11DA35AF9
:1002D000BF4F2C91848D90E001968F739927848F66
:1002E000A689B7892C93A089B1898C918370806489
:1002F0008C93938D848D981306C00288F389E02D2A
:1003000080818F7D80830895EF92FF920F931F93DA
:10031000CF93DF93EC0181E0888F9B8D8C8D9813B8
:100320001AC0E889F989808185FF15C09FB7F894C4
:10033000EE89FF896083E889F98980818370806410
:1003400080839FBF81E090E0DF91CF911F910F915B
:10035000FF90EF900895F62E0B8D10E00F5F1F4F6A
:100360000F731127E02E8C8D8E110CC00FB607FC79
:10037000FACFE889F989808185FFF5CFCE010E9407
:100380006201F1CFEB8DEC0FFD2FF11DE35AFF4F12
:10039000F0829FB7F8940B8FEA89FB898081806295
:1003A000CFCFCF93DF93EC01888D8823B9F0AA8952
:1003B000BB89E889F9898C9185FD03C0808186FD20
:1003C0000DC00FB607FCF7CF8C9185FFF2CF80816F
:1003D00085FFEDCFCE010E946201E9CFDF91CF9181
:1003E00008953FB7F8948091FC019091FD01A09190
:1003F000FE01B091FF0126B5A89B05C02F3F19F063
:100400000196A11DB11D3FBFBA2FA92F982F882794
:10041000BC01CD01620F711D811D911D42E0660F6F
:10042000771F881F991F4A95D1F708958F929F9241
:10043000AF92BF92CF92DF92EF92FF924B015C019D
:100440000E94F1016B017C010E94F1016C197D0990
:100450008E099F09683E734081059105A8F321E04C
:10046000821A9108A108B10888EEC80E83E0D81E50
:10047000E11CF11C81149104A104B10429F7FF903F
:10048000EF90DF90CF90BF90AF909F908F900895A6
:100490000895089585ED8093BC008091BC0084FD93
:1004A000FCCF10920602089520918E01260F33276B
:1004B000331F21323105ECF420910602FC0190E05B
:1004C00080E0243069F082E00895A0918E012191AE
:1004D000AC0142595E4FA40FB52FB11D2C9301966C
:1004E000861798F380918E01680F60938E0180E0EB
:1004F000089581E008950895E0910A02809109022B
:10050000E81730F4F0E0E25BFE4F808190E0089560
:100510008FEF9FEF089590910A02809109022FEFCB
:100520003FEF981748F4E92FF0E0E25BFE4F20819F
:1005300030E09F5F90930A02C901089580910902FB
:1005400090910A02891B990B0895CF92DF92EF9246
:10055000FF920F931F93CF93DF937C01CB018A010E
:100560002091D501222389F0EB016B01C40ED51E29
:10057000CC15DD0569F06991D701ED91FC910190F1
:10058000F081E02DC7010995F3CF642F0E9454023A
:10059000C801DF91CF911F910F91FF90EF90DF90F5
:1005A000CF900895CF93DF931F92CDB7DEB76983C5
:1005B0002091D5012223F9F020910702203258F032
:1005C00021E030E0FC013383228390E080E00F9053
:1005D000DF91CF91089580910802E82FF0E0EA5270
:1005E000FE4F998190838F5F80930802809307026A
:1005F00081E090E0ECCF61E0CE0101960E945402D0
:10060000F7CFCF93FC01C48121E02093D501C093A3
:10061000F60110920802109207028385682B8CEA7B
:1006200092E00E94D20290910702913208F03FC0FE
:10063000809106028111FCCF82E08093060281E066
:10064000809305028FEF8093D4011092D301909391
:10065000D201A6EDB1E0E2EBF1E080E098132FC00B
:100660001092B1018091B101CC0FC82BC093B101A0
:1006700080910402813039F5109204028091B10119
:100680008093BB008091BC0083FDF8CF85EC809304
:10069000BC00809106028230E1F38091D4018F3F4B
:1006A00031F08091D401803211F08091D401109208
:1006B0000802109207021092D501CF9108952D9152
:1006C00021938F5FCBCF85EEE2CF90E080E008955D
:1006D0000F931F93CF938C01C62F0E9401036C2FA1
:1006E0006460C8010E9401036C2F6B7FC8010E94E7
:1006F000010383EC90E00197F1F7CF911F910F91E7
:1007000008950F931F93CF93DF938C01D62FC42F9F
:10071000607F642B0E94680380E1D89FB0011124A0
:100720006C2BC801DF91CF911F910F910C9468033E
:10073000CF93DF93CDB7DEB728970FB6F894DEBF1F
:100740000FBECDBF98E0E4E0F1E0DE01119601902C
:100750000D929A95E1F79091C002981708F48FEFE7
:1007600090E0880F991F21E030E02C0F3D1F820F91
:10077000931FFC016081606840E088EB92E028965E
:100780000FB6F894DEBF0FBECDBFDF91CF910C94B2
:10079000810341E00E94810381E090E008951F926F
:1007A0000F920FB60F9211242F933F934F935F93A5
:1007B0006F937F938F939F93AF93BF93EF93FF9329
:1007C0008FE092E00E946201FF91EF91BF91AF91A3
:1007D0009F918F917F916F915F914F913F912F9159
:1007E0000F900FBE0F901F9018951F920F920FB68B
:1007F0000F9211242F938F939F93EF93FF93E09188
:100800001F02F09120028081E0912502F0912602E2
:1008100082FD1BC09081809128028F5F8F73209191
:100820002902821741F0E0912802F0E0E15FFD4FDC
:10083000958F80932802FF91EF919F918F912F9137
:100840000F900FBE0F901F9018958081F4CF1F92CC
:100850000F920FB60F9211242F933F938F939F9374
:10086000AF93BF938091F8019091F901A091FA01A3
:10087000B091FB013091F70123E0230F2D3758F59C
:100880000196A11DB11D2093F7018093F80190936B
:10089000F901A093FA01B093FB018091FC019091C2
:1008A000FD01A091FE01B091FF010196A11DB11DB6
:1008B0008093FC019093FD01A093FE01B093FF0192
:1008C000BF91AF919F918F913F912F910F900FBE4C
:1008D0000F901F90189526E8230F0296A11DB11DB9
:1008E000D2CF1F920F920FB60F9211242F933F93E6
:1008F0004F935F936F937F938F939F93AF93BF9328
:10090000EF93FF93E0910201F09103010995FF91AC
:10091000EF91BF91AF919F918F917F916F915F9177
:100920004F913F912F910F900FBE0F901F901895F0
:100930001F920F920FB60F9211242F933F934F9354
:100940005F936F937F938F939F93AF93BF93EF9337
:10095000FF93E0910001F09101010995FF91EF9162
:10096000BF91AF919F918F917F916F915F914F91C7
:100970003F912F910F900FBE0F901F9018951F92CF
:100980000F920FB60F9211242F933F934F935F93C3
:100990006F937F938F939F93AF93BF93EF93FF9347
:1009A0008091B900887F803609F44AC0F0F588321A
:1009B00009F4A7C018F5803109F49BC0B8F4882366
:1009C00009F4F9C0883009F494C0FF91EF91BF9108
:1009D000AF919F918F917F916F915F914F913F91D7
:1009E0002F910F900FBE0F901F901895883109F42A
:1009F00088C0803251F78093D40114C0803409F448
:100A00009DC040F48033B9F38833F9F68093D40164
:100A100085ECB0C0803509F485C0883509F496C0EE
:100A2000883499F60E944A02D0CF883909F48CC0E4
:100A300038F5883729F050F4883611F0803729F6D8
:100A400083E0809306021092B00157C0883809F401
:100A50007BC0803919F0803809F0B7CF8091B001A0
:100A6000803208F071C0E091B00181E08E0F809378
:100A7000B0018091BB00F0E0E057FE4F80833DC0A5
:100A8000803B39F0E0F4803A09F479C0883A09F003
:100A90009CCF84E08093060210928F0110928E0109
:100AA000E0910202F0910302099580918E0181117B
:100AB0000FC081E080938E0110926E0109C0803CCE
:100AC00009F4A6CF883C09F4A3CF883B09F07DCF79
:100AD000E0918F0181E08E0F80938F01F0E0E25969
:100AE000FE4F80818093BB0090918F0180918E0199
:100AF00029C08091B1018093BB0085EC8093BC003C
:100B000064CF9091D3018091D201981758F5E0916C
:100B1000D30181E08E0F8093D301F0E0EE54FE4FBD
:100B20008081E9CFE091D30181E08E0F8093D301E2
:100B30008091BB00F0E0EE54FE4F80839091D30192
:100B40008091D2019817C8F285E8D8CFE091D301FF
:100B500081E08E0F8093D3018091BB00F0E0EE54D2
:100B6000FE4F80838091050281115CCF81E08093EC
:100B7000040284EA8093BC001092060226CF85EC22
:100B80008093BC00109206028091B001803230F454
:100B9000E091B001F0E0E057FE4F10826091B001AB
:100BA00070E0E0910002F091010280E991E0099586
:100BB0001092B0010ACF1092D40134CFEFE0F2E0EE
:100BC0001382128288EE93E0A0E0B0E084839583E4
:100BD000A683B78320E131E03183208325EC30E028
:100BE0003587248724EC30E03787268720EC30E0F7
:100BF000318B208B21EC30E0338B228B22EC30E0E8
:100C0000358B248B26EC30E0378B268B118E128EA1
:100C1000138E148EECEAF2E01382128284839583A1
:100C2000A683B78382E291E091838083E8EBF2E0D0
:100C30001382128284E391E09183808387E284832C
:100C400080E1818782E0828713860895CF93DF93C6
:100C5000CDB7DEB7A1970FB6F894DEBF0FBECDBFFC
:100C6000789484B5826084BD84B5816084BD85B587
:100C7000826085BD85B5816085BD80916E00816093
:100C800080936E0010928100809181008260809339
:100C9000810080918100816080938100809180003B
:100CA0008160809380008091B10084608093B10066
:100CB0008091B00081608093B00080917A00846060
:100CC00080937A0080917A00826080937A0080918C
:100CD0007A00816080937A0080917A0080688093A6
:100CE0007A001092C100E2E9F0E02491EEE7F0E032
:100CF00084918823C9F090E0880F991FFC01E8597E
:100D0000FF4F45915491FC01EE58FF4FA591B491CE
:100D10009FB7F894FA013081822F809583238083D6
:100D2000EC91E22BEC939FBF8EEC90E0909301014D
:100D300080930001809169008C7F826080936900BC
:100D4000E89AE0911F02F091200282E08083E09116
:100D50001B02F0911C021082E0911D02F0911E0214
:100D60008FEC808310922702E0912302F0912402FD
:100D700086E08083E0912102F091220280818061EF
:100D80008083E0912102F09122028081886080833B
:100D9000E0912102F0912202808180688083E091BD
:100DA0002102F091220280818F7D808310920A02BD
:100DB0001092090210920802109207021092060285
:100DC00081E0809305021092040282E10E94870074
:100DD00083E10E9487008091B9008E7F8093B900E3
:100DE0008091B9008D7F8093B90088E48093B8002A
:100DF00085E48093BC0082EE90E0909303028093A0
:100E0000020283EE90E09093010280930002109220
:100E1000BD028091C202823018F098E09093BD022A
:100E20008093C00262E370E080E090E00E941602CE
:100E30006091C30288EB92E00E94010368EE73E0C8
:100E400080E090E00E94160260E388EB92E00E944E
:100E500068030BE416E4C8010197F1F760E388EB3F
:100E600092E00E946803C8010197F1F760E388EB04
:100E700092E00E94680383E592E00197F1F760E257
:100E800088EB92E00E9468036091BD02606240E0DE
:100E900088EB92E00E94810384E08093BE0240E0F0
:100EA0006CE088EB92E00E94810340E061E088EB17
:100EB00092E00E9481030BE31FE1C8010197F1F763
:100EC00082E08093BF0240E066E088EB92E00E94FF
:100ED000810340E062E088EB92E00E948103C80158
:100EE0000197F1F780E00E9498034AE050E06CE33C
:100EF00071E088EB92E00E94E40088E08093C302F6
:100F000060E088EB92E00E94010368EC70E080E012
:100F100090E00E9416028AE0882E912CA12CB12C20
:100F200000E010E046E050E067E471E088EB92E01A
:100F30000E94E40010920B0210920C0210920D021B
:100F400010920E0260E777E180E090E00E941602C6
:100F500020910B0230910C0240910D0250910E0233
:100F6000A5E0B0E00E943C0860930B0270930C0275
:100F700080930D0290930E0281E00E949803C0902E
:100F80000B02D0900C02E0900D02F0900E02F7FEE2
:100F90003BC041E06DE288EB92E00E948103222792
:100FA0003327A9012C193D094E095F0919A2CE0169
:100FB00081967C01CA01B901A50194010E941A0819
:100FC000605DF70162937F012115310541055105EF
:100FD00089F7E114F10461F001900020E9F73197FD
:100FE000AF014E195F09B70188EB92E00E94E4005F
:100FF0000115110509F496CF0E944E01882309F4CA
:1010000091CF0E9400008ECFA701960119A2CE01B8
:1010100081967C01CA01B901A50194010E941A08B8
:10102000605DF70162937F0121153105410551058E
:1010300089F7CFCFA1E21A2EAA1BBB1BFD010DC061
:10104000AA1FBB1FEE1FFF1FA217B307E407F50778
:1010500020F0A21BB30BE40BF50B661F771F881F54
:10106000991F1A9469F760957095809590959B01EA
:10107000AC01BD01CF0108950E944D08A59F900DC0
:10108000B49F900DA49F800D911D11240895EE0F23
:10109000FF1F0590F491E02D0994A29FB001B39F2A
:1010A000C001A39F700D811D1124911DB29F700D71
:0C10B000811D1124911D0895F894FFCFBC
:1010BC0048024802000040001400540000000000E8
:1010CC008401E4001101D10142012001340100002E
:1010DC000000D202A50265037B029E028B027C02F9
:1010EC0000000000C903E400650349024865617211
:0E10FC0074526174653A0020202020202000EC
:00000001FF
