:100000000C9458000C9480000C9480000C94800098
:100010000C9480000C9480000C9480000C94800060
:100020000C9480000C9480000C9480000C94800050
:100030000C9480000C9480000C9480000C94800040
:100040000C940D040C9480000C94DB030C94B50309
:100050000C9480000C9480000C9480000C94800020
:100060000C9457040C948000000000002500280028
:100070002B00040404040404040402020202020229
:10008000030303030303010204081020408001025C
:1000900004081020010204081020000000080002DB
:1000A00001000003040700000000000000007605C6
:1000B00011241FBECFEFD8E0DEBFCDBF11E0A0E01E
:1000C000B1E0E8E5FFE002C005900D92AA34B10767
:1000D000D9F722E0AAE4B1E001C01D92A03CB2072A
:1000E000E1F710E0C8E5D0E004C02197FE010E94CE
:1000F000A407C735D107C9F70E94BE050C94AA070B
:100100000C94000090E0FC01E656FF4F2491FC01A6
:10011000EA57FF4F3491FC01EE58FF4FE491EE2374
:10012000B1F0222339F02330E9F090F4213001F1CD
:10013000223011F1F0E0EE0FFF1FE859FF4FA591BB
:10014000B4918FB7F894EC913E2B3C938FBF0895F8
:100150002730A9F02830C9F0243061F78091800061
:100160008F7D03C0809180008F7780938000E2CFE5
:1001700084B58F7784BDDECF84B58F7DFBCF809132
:10018000B0008F778093B000D5CF8091B0008F7D85
:10019000F9CF08950895AF92BF92CF92DF92EF9278
:1001A000FF920F931F93CF93DF936C017B018B0121
:1001B000040F151FEB015E01AE18BF08C017D10771
:1001C00059F06991D601ED91FC910190F081E02DFB
:1001D000C6010995892B79F7C501DF91CF911F9150
:1001E0000F91FF90EF90DF90CF90BF90AF90089568
:1001F000FC01538D448D252F30E0842F90E0821B2D
:10020000930B541710F0CF96089501970895FC01B1
:10021000918D828D981761F0A28DAE0FBF2FB11D09
:100220005D968C91928D9F5F9F73928F90E0089561
:100230008FEF9FEF0895FC01918D828D981731F01B
:10024000828DE80FF11D858D90E008958FEF9FEF6F
:100250000895FC01918D228D892F90E0805C9F4F45
:10026000821B91098F73992708958BE092E00E9479
:10027000290121E0892B09F420E0822F089580E0F4
:1002800090E0892B29F00E94350181110C94000027
:100290000895FC01A48DA80FB92FB11DA35ABF4F1B
:1002A0002C91848D90E001968F739927848FA68975
:1002B000B7892C93A089B1898C91837080648C93C9
:1002C000938D848D981306C00288F389E02D808178
:1002D0008F7D80830895EF92FF920F931F93CF93AA
:1002E000DF93EC0181E0888F9B8D8C8D98131AC071
:1002F000E889F989808185FF15C09FB7F894EE8958
:10030000FF896083E889F9898081837080648083B4
:100310009FBF81E090E0DF91CF911F910F91FF90FF
:10032000EF900895F62E0B8D10E00F5F1F4F0F73A7
:100330001127E02E8C8D8E110CC00FB607FCFACF62
:10034000E889F989808185FFF5CFCE010E944901B6
:10035000F1CFEB8DEC0FFD2FF11DE35AFF4FF08233
:100360009FB7F8940B8FEA89FB8980818062CFCF99
:10037000CF93DF93EC01888D8823B9F0AA89BB89DC
:10038000E889F9898C9185FD03C0808186FD0DC0C7
:100390000FB607FCF7CF8C9185FFF2CF808185FFE8
:1003A000EDCFCE010E944901E9CFDF91CF910895B1
:1003B0003FB7F8948091F8019091F901A091FA016A
:1003C000B091FB0126B5A89B05C02F3F19F00196FF
:1003D000A11DB11D3FBFBA2FA92F982F8827BC019F
:1003E000CD01620F711D811D911D42E0660F771FC7
:1003F000881F991F4A95D1F708958F929F92AF92C7
:10040000BF92CF92DF92EF92FF924B015C010E946C
:10041000D8016B017C010E94D8016C197D098E09FD
:100420009F09683E734081059105A8F321E0821A77
:100430009108A108B10888EEC80E83E0D81EE11C1F
:10044000F11C81149104A104B10429F7FF90EF90ED
:10045000DF90CF90BF90AF909F908F9008950895B8
:1004600085ED8093BC008091BC0084FDFCCF109290
:100470000202089520918A01260F3327331F21326B
:100480003105ECF420910202FC0190E080E0243080
:1004900069F082E00895A0918A012191AC0146594A
:1004A0005E4FA40FB52FB11D2C930196861798F3BC
:1004B00080918A01680F60938A0180E0089581E04D
:1004C00008950895E091060280910502E81730F43E
:1004D000F0E0E65BFE4F808190E008958FEF9FEFA4
:1004E000089590910602809105022FEF3FEF981733
:1004F00048F4E92FF0E0E65BFE4F208130E09F5F9B
:1005000090930602C9010895809105029091060218
:10051000891B990B0895CF92DF92EF92FF920F9370
:100520001F93CF93DF937C01CB018A012091D101EE
:10053000222389F0EB016B01C40ED51ECC15DD051D
:1005400069F06991D701ED91FC910190F081E02D66
:10055000C7010995F3CF642F0E943A02C801DF91C9
:10056000CF911F910F91FF90EF90DF90CF90089562
:10057000CF93DF931F92CDB7DEB769832091D1016E
:100580002223F9F020910302203258F021E030E0DC
:10059000FC013383228390E080E00F90DF91CF91C4
:1005A000089580910402E82FF0E0EE52FE4F998109
:1005B00090838F5F809304028093030281E090E038
:1005C000ECCF61E0CE0101960E943A02F7CFCF93C3
:1005D000FC01C48121E02093D101C093F20110926B
:1005E0000402109203028385682B88EA92E00E943D
:1005F000B80290910302913208F03FC0809102024C
:100600008111FCCF82E08093020281E0809301029D
:100610008FEF8093D0011092CF019093CE01A2ED85
:10062000B1E0EEEAF1E080E098132FC01092AD0146
:100630008091AD01CC0FC82BC093AD018091000219
:10064000813039F5109200028091AD018093BB009A
:100650008091BC0083FDF8CF85EC8093BC00809135
:1006600002028230E1F38091D0018F3F31F080911E
:10067000D001803211F08091D001109204021092CA
:1006800003021092D101CF9108952D9121938F5F94
:10069000CBCF85EEE2CF90E080E008950F931F93DB
:1006A000CF938C01C62F0E94E7026C2F6460C801B3
:1006B0000E94E7026C2F6B7FC8010E94E70283EC67
:1006C00090E00197F1F7CF911F910F9108950F934B
:1006D0001F93CF93DF938C01D62FC42F607F642BA1
:1006E0000E944E0380E1D89FB00111246C2BC801F9
:1006F000DF91CF911F910F910C944E03CF93DF9315
:10070000CDB7DEB728970FB6F894DEBF0FBECDBFCA
:1007100098E0E0E0F1E0DE01119601900D929A95EB
:10072000E1F79091BC02981708F48FEF90E0880FE2
:10073000991F21E030E02C0F3D1F820F931FFC0119
:100740006081606840E084EB92E028960FB6F894F0
:10075000DEBF0FBECDBFDF91CF910C94670341E0A8
:100760000E94670381E090E008951F920F920FB6F8
:100770000F9211242F933F934F935F936F937F9327
:100780008F939F93AF93BF93EF93FF938BE092E090
:100790000E944901FF91EF91BF91AF919F918F917D
:1007A0007F916F915F914F913F912F910F900FBE6D
:1007B0000F901F9018951F920F920FB60F92112451
:1007C0002F938F939F93EF93FF93E0911B02F091F0
:1007D0001C028081E0912102F091220282FD1BC067
:1007E0009081809124028F5F8F7320912502821760
:1007F00041F0E0912402F0E0E55FFD4F958F80939A
:100800002402FF91EF919F918F912F910F900FBE36
:100810000F901F9018958081F4CF1F920F920FB602
:100820000F9211242F933F938F939F93AF93BF9376
:100830008091F4019091F501A091F601B091F7013A
:100840003091F30123E0230F2D3758F50196A11DB8
:10085000B11D2093F3018093F4019093F501A093CF
:10086000F601B093F7018091F8019091F901A09100
:10087000FA01B091FB010196A11DB11D8093F80111
:100880009093F901A093FA01B093FB01BF91AF914E
:100890009F918F913F912F910F900FBE0F901F90BE
:1008A000189526E8230F0296A11DB11DD2CF1F92E5
:1008B0000F920FB60F9211242F933F934F935F9394
:1008C0006F937F938F939F93AF93BF93EF93FF9318
:1008D0008091B900887F803609F44AC0F0F58832EB
:1008E00009F4A7C018F5803109F49BC0B8F4882337
:1008F00009F4F9C0883009F494C0FF91EF91BF91D9
:10090000AF919F918F917F916F915F914F913F91A7
:100910002F910F900FBE0F901F901895883109F4FA
:1009200088C0803251F78093D00114C0803409F41C
:100930009DC040F48033B9F38833F9F68093D00139
:1009400085ECB0C0803509F485C0883509F496C0BF
:10095000883499F60E943002D0CF883909F48CC0CF
:1009600038F5883729F050F4883611F0803729F6A9
:1009700083E0809302021092AC0157C0883809F4DA
:100980007BC0803919F0803809F0B7CF8091AC0175
:10099000803208F071C0E091AC0181E08E0F80934D
:1009A000AC018091BB00F0E0E457FE4F80833DC076
:1009B000803B39F0E0F4803A09F479C0883A09F0D4
:1009C0009CCF84E08093020210928B0110928A01E6
:1009D000E091FE01F091FF01099580918A0181115A
:1009E0000FC081E080938A0110926A0109C0803CA7
:1009F00009F4A6CF883C09F4A3CF883B09F07DCF4A
:100A0000E0918B0181E08E0F80938B01F0E0E6593D
:100A1000FE4F80818093BB0090918B0180918A0171
:100A200029C08091AD018093BB0085EC8093BC0010
:100A300064CF9091CF018091CE01981758F5E09145
:100A4000CF0181E08E0F8093CF01F0E0E255FE4FA1
:100A50008081E9CFE091CF0181E08E0F8093CF01BB
:100A60008091BB00F0E0E255FE4F80839091CF0172
:100A70008091CE019817C8F285E8D8CFE091CF01D8
:100A800081E08E0F8093CF018091BB00F0E0E255B2
:100A9000FE4F80838091010281115CCF81E08093C1
:100AA000000284EA8093BC001092020226CF85ECFB
:100AB0008093BC00109202028091AC01803230F42D
:100AC000E091AC01F0E0E457FE4F10826091AC0180
:100AD00070E0E091FC01F091FD018CE891E0099556
:100AE0001092AC010ACF1092D00134CFEBE0F2E0CB
:100AF0001382128288EE93E0A0E0B0E084839583B5
:100B0000A683B7832CE031E03183208325EC30E0ED
:100B10003587248724EC30E03787268720EC30E0C7
:100B2000318B208B21EC30E0338B228B22EC30E0B8
:100B3000358B248B26EC30E0378B268B118E128E72
:100B4000138E148EE8EAF2E0138212828483958376
:100B5000A683B7838EE191E091838083E4EBF2E09A
:100B60001382128280E391E09183808387E2848301
:100B700080E1818782E0828713860895CF93DF9397
:100B8000CDB7DEB7A1970FB6F894DEBF0FBECDBFCD
:100B9000789484B5826084BD84B5816084BD85B558
:100BA000826085BD85B5816085BD80916E00816064
:100BB00080936E001092810080918100826080930A
:100BC000810080918100816080938100809180000C
:100BD0008160809380008091B10084608093B10037
:100BE0008091B00081608093B00080917A00846031
:100BF00080937A0080917A00826080937A0080915D
:100C00007A00816080937A0080917A008068809376
:100C10007A001092C100E0911B02F0911C0282E068
:100C20008083E0911702F09118021082E09119027E
:100C3000F0911A028FEC808310922302E0911F0240
:100C4000F091200286E08083E0911D02F0911E0267
:100C5000808180618083E0911D02F0911E0280817D
:100C600088608083E0911D02F0911E02808180687F
:100C70008083E0911D02F0911E0280818F7D808330
:100C800010920602109205021092040210920302C2
:100C90001092020281E0809301021092000282E130
:100CA0000E94820083E10E9482008091B9008E7FC1
:100CB0008093B9008091B9008D7F8093B90088E45A
:100CC0008093B80085E48093BC0089EC90E0909319
:100CD000FF018093FE018AEC90E09093FD018093E8
:100CE000FC011092B9028091BE02823018F098E0A7
:100CF0009093B9028093BC0262E370E080E090E0E0
:100D00000E94FD016091BF0284EB92E00E94E70225
:100D100068EE73E080E090E00E94FD0160E384EB08
:100D200092E00E944E030BE416E4C8010197F1F72C
:100D300060E384EB92E00E944E03C8010197F1F753
:100D400060E384EB92E00E944E0383E592E001971A
:100D5000F1F760E284EB92E00E944E036091B902E9
:100D6000606240E084EB92E00E94670384E080933D
:100D7000BA0240E06CE084EB92E00E94670340E03E
:100D800061E084EB92E00E9467030BE31FE1C8017E
:100D90000197F1F782E08093BB0240E066E084EBCC
:100DA00092E00E94670340E062E084EB92E00E94E0
:100DB0006703C8010197F1F780E00E947E034AE0D3
:100DC00050E068E371E084EB92E00E94CB0088E0A1
:100DD0008093BF0260E084EB92E00E94E70280E42F
:100DE000782E9AE0892E912CA12CB12C00E010E0F5
:100DF00070927C0080917A00806480937A00809168
:100E00007A0086FDFCCF9091780080917900892747
:100E100098278927092E000CAA0BBB0B8093070289
:100E200090930802A0930902B0930A0281E00E9405
:100E30007E03C0900702D0900802E0900902F09073
:100E40000A02F7FE49C041E06DE284EB92E00E94A5
:100E5000670322273327A9012C193D094E095F0991
:100E600019A2CE0181967C01CA01B901A5019401A4
:100E70000E948207605DF70162937F0121153105B1
:100E80004105510589F7E114F10461F0019000205A
:100E9000E9F73197AF014E195F09B70184EB92E092
:100EA0000E94CB0068EC70E080E090E00E94FD01C1
:100EB00046E050E063E471E084EB92E00E94CB00F6
:100EC0000115110509F494CF0E943501882309F416
:100ED0008FCF0E9400008CCFA701960119A2CE01EE
:100EE00081967C01CA01B901A50194010E94820783
:100EF000605DF70162937F012115310541055105C0
:100F000089F7C1CFA1E21A2EAA1BBB1BFD010DC0A0
:100F1000AA1FBB1FEE1FFF1FA217B307E407F507A9
:100F200020F0A21BB30BE40BF50B661F771F881F85
:100F3000991F1A9469F760957095809590959B011B
:100F4000AC01BD01CF010895EE0FFF1F0590F49194
:080F5000E02D0994F894FFCF95
:100F58000000400014005400000000006B01CB00AA
:100F6800F800B801290107011B0100000000B802C0
:100F78008B024B03610284027102620200000000CE
:100F8800AF03CB004B032F02486561727452617442
:0A0F9800653A0020202020202000F0
:00000001FF
